:020000040800F2
:10000000B03D012089010008F5010008F501000854
:10001000F5010008F5010008F501000800000000E6
:100020000000000000000000000000009523000810
:10003000F50100080000000051250008A92500086E
:10004000F5010008F5010008F5010008F5010008B8
:10005000F5010008F5010008F5010008F5010008A8
:10006000F5010008F5010008F5010008F501000898
:10007000F5010008F5010008F5010008F501000888
:10008000F5010008F5010008F5010008F501000878
:10009000F5010008F5010008F5010008F501000868
:1000A000F5010008F5010008F5010008F501000858
:1000B000F5010008F5010008F5010008F501000848
:1000C000F5010008F5010008F5010008F501000838
:1000D000F5010008F5010008F5010008F501000828
:1000E000F5010008F5010008F5010008F501000818
:1000F000F5010008F5010008F5010008F501000808
:10010000F5010008F5010008F5010008F5010008F7
:10011000F5010008F5010008F5010008F5010008E7
:10012000F5010008F5010008F5010008F5010008D7
:10013000F5010008F5010008F5010008F5010008C7
:10014000F5010008F5010008F5010008F5010008B7
:10015000F5010008F5010008F5010008F5010008A7
:10016000F5010008F5010008F5010008F501000897
:10017000F5010008F5010008F5010008F501000887
:10018000F5010008F501000880B582B000AF134BFF
:100190007B60134B3B6007E03B681A1D3A607A684E
:1001A000111D796012681A603A680E4B9A42F3D3B7
:1001B0000D480E494FF000028842B8BF40F8042BAA
:1001C000FFF6FAAFDFF82800016841F47001016022
:1001D00000F014F80837BD4680BD00BFB82A0008FB
:1001E000000000202000002020000020B02D012071
:1001F00088ED00E080B400AFFEE700BF80B500AF3F
:1002000001F0C4FB00F0D0F8012000F003F800F08A
:10021000A1FCFEE780B588B004AF78607D23FB6069
:10022000082002F025FAB860BB684FF480521A80AB
:10023000FA68FB681A44BB685A60BB685A68BB68B6
:100240005A607B68009300230193002302930023EC
:100250000393334833498222BB6800F087FB0820B0
:1002600002F006FAB860BB684FF400521A80FA68D0
:1002700013465B001A44BB685A60BB685A68BB6887
:100280005A607B68009300230193002302930023AC
:100290000393234823498222BB6800F067FB0820B0
:1002A00002F0E6F9B860BB684FF400421A80FB68C0
:1002B0009A00BB685A60BB685A68BB685A607B6822
:1002C0000093002301930023029300230393144817
:1002D00014498222BB6800F049FB082002F0C8F9EB
:1002E000B860BB684FF480421A80FA6813469B00DE
:1002F0001A44BB685A60BB685A68BB685A607B681E
:1003000000930023019300230293002303930448E6
:1003100004498222BB6800F029FB1037BD4680BD2E
:1003200029030008842A000880B584B000AF7860F3
:100330007B68FB60FB685B685B08184600F0C8FBE5
:10034000FB681B88184600F00DF8FB685B685B08CB
:10035000184600F0BDFBFB681B88184600F002F849
:10036000E8E700BF80B582B000AF0346FB8002F033
:10037000A9F8FB88184600F005F802F0C3F8083722
:10038000BD4680BD80B483B000AF0346FB80054B03
:10039000044A5169FA884A405A610C37BD465DF8F3
:1003A000047B7047000C024080B582B000AF08208B
:1003B000012100F029F84FF470433B6003237B7167
:1003C00001233B710023BB710023FB713B460348B3
:1003D000194601F09BF90837BD4680BD000C02406C
:1003E00080B582B000AF7860396002F0A3F8FEE714
:1003F00080B400AFBD465DF8047B704780B500AFA8
:1004000002F098F8FEE700BF80B483B000AF7860D8
:100410000B46FB70FB78002B06D0094B084A116B8A
:100420007A680A431A6306E0054B054A116B7A683D
:10043000D2430A401A630C37BD465DF8047B70470F
:100440000038024080B586B004AF00237B6000F026
:1004500051FA0F4B1B68002B0FD00223009300238F
:10046000019300230293002303930A480A494FF49F
:100470008272002300F07AFA78607B68002B02D148
:1004800002F058F8FEE77B6818460837BD4680BD85
:1004900050000020990500088C2A000880B588B01B
:1004A00000AFF860B9607A603B600023FB611D4BD0
:1004B0001B68002B30D0BB683B617B687B61FB68AD
:1004C000BB61BB68052B1CDC01F00CF80346022B5A
:1004D0000BD1144B1A6807F1100310461946BA6A7B
:1004E000002301F09BFBF86116E00E4B1A6807F140
:1004F0001003104619460022002301F08FFBF8611B
:100500000AE0084B1A6807F11003104619463A68CA
:10051000002301F049FCF861FB6918462037BD460D
:1005200080BD00BF5000002080B586B002AF78606B
:100530003960184B1B68DB68DB68FB60FB680433C1
:10054000184601F0F9F9FB68DB69012B1BD1FB6848
:100550009A697B681344F86819463A687B6800F02A
:10056000A7F80346012B0ED100230093F868002161
:100570007A680023FFF792FFB860BB68002B02D1B6
:1005800001F0D8FFFEE7FB685B6AF8689847103710
:10059000BD4680BD4800002080B584B000AF7860C3
:1005A00007F10803184600F03FF8F860BB68F868E8
:1005B000194600F003F800F0BDF8F1E780B584B00B
:1005C00000AF7860396000F0FDFA07F108031846C3
:1005D00000F04EF8F860BB68002B1ED13B68002B82
:1005E0000AD17A68FB689A4206D800F0F9FA78686E
:1005F000F968FFF799FF12E00A4B1A687968FB68FF
:10060000CB1A1046194601F057FE00F0E9FA0346EE
:10061000002B04D101F046FF01E000F0E1FA1037B1
:10062000BD4680BD5000002080B485B000AF78602A
:100630000E4B1B681B68002B14BF00230123DBB289
:100640001A467B681A607B681B68002B05D1074B34
:100650001B68DB681B68FB6001E00023FB60FB6834
:1006600018461437BD465DF8047B704748000020EB
:1006700080B584B000AF786000F036FBF8600B4BBB
:100680001B68FA689A4205D200F0DCF87B68012208
:100690001A6002E07B6800221A60044BFA681A6054
:1006A000FB6818461037BD4680BD00BF54000020CF
:1006B00080B586B000AFF860B9607A603B60002317
:1006C0007B61FB68BA685A60FB68FA681A61BA68AD
:1006D0007B689A4212D87A683B68D21AFB689B6999
:1006E0009A4202D301237B611BE0104B1A68FB681E
:1006F00004331046194601F0E7F812E07A683B68C7
:100700009A4206D2BA683B689A4202D301237B61BF
:1007100007E0074B1A68FB6804331046194601F0DE
:10072000D3F87B6918461837BD4680BD4C000020C1
:100730004800002080B58AB002AF70E0BB68002B93
:100740006DDB3B69FB61FB695B69002B04D0FB69D6
:100750000433184601F0F0F83B1D1846FFF788FFF8
:10076000B861BB68092B59D801A252F823F000BF29
:100770009907000899070008990700081D08000854
:10078000EB070008150800089907000899070008FA
:100790001D080008EB070008FA68FB699B691A440A
:1007A000FB68F8691146BA69FFF782FF0346012B1F
:1007B0001AD1FB695B6AF8699847FB69DB69012B11
:1007C00012D1FA68FB699B69134400220092F86910
:1007D00000211A460023FFF761FE78617B69002B38
:1007E00002D101F0A7FEFEE719E0FA68FB699A6101
:1007F000FB699B69002B02D101F09CFEFEE7FB69BF
:100800009A69BB691344F8691946BA69BB69FFF76D
:100810004FFF04E0F86901F0BDFF00E000BF084BA6
:100820001A6807F10803104619460022002301F058
:100830002FFB0346002B81D12037BD4680BD00BF72
:100840005000002080B588B002AF3DE0274B1B6808
:10085000DB681B687B61254B1B68DB68DB683B61E1
:100860003B690433184601F067F83B695B6A3869F5
:1008700098473B69DB69012B26D13B699A697B6903
:100880001344FB60FA687B699A420ED93B69FA68A7
:100890005A603B693A691A61144B1A683B69043320
:1008A0001046194601F010F80EE000230093386955
:1008B00000217A690023FFF7F1FDB860BB68002BC7
:1008C00002D101F037FEFEE7084B1B681B68002BC6
:1008D000BCD1064B1B687B60054B1A68034B1A6042
:1008E000034B7A681A601837BD4680BD4800002067
:1008F0004C00002080B500AF01F0E4FD154B1B68F3
:10090000002B24D1144800F08FFF144800F08CFF16
:10091000134B114A1A60134B104A1A600A200C211B
:10092000002201F039F902460A4B1A60094B1B6894
:10093000002B02D101F0FEFDFEE7064B1B68002BE9
:1009400005D0044B1B681846074901F08DFC01F0E7
:10095000D9FD80BD50000020200000203400002080
:10096000480000204C000020942A000880B58AB07E
:1009700002AFF860B9603B601346FB80FB68002B58
:1009800002D101F0D7FDFEE7BB6A042B02D901F0CA
:10099000D1FDFEE7FB881846396B00F03DFDB861DC
:1009A000BB69002B71D0BB691A6BFB8803F18043D4
:1009B000013B9B0013447B617B6923F007037B6150
:1009C0007B6903F00703002B02D001F0B3FDFEE7C3
:1009D000FB880093B869B968BA6A7B6B00F024FCA5
:1009E0007869F9683A6801F093FC0246BB691A60BD
:1009F000FB6A002B02D0FB6ABA691A6001F062FD43
:100A00002D4B1B685A1C2C4B1A602C4B1B68002B5F
:100A100009D12A4BBA691A60274B1B68012B0FD1E9
:100A200000F04CFC0CE0264B1B68002B08D1234B3C
:100A30001B68DA6ABB6A9A4202D8204BBA691A600C
:100A4000204B1B685A1C1F4B1A601E4B1A68BB694F
:100A50001A64BB69DB6A01229A401B4B1B681A436C
:100A6000194B1A60BB69DA6A13469B0013449B005A
:100A7000164A1A44BB6904331046194600F000FFB9
:100A80000123FB6101F03EFD02E04FF0FF33FB610B
:100A9000FB69012B0BD10A4B1B68002B07D0074BBE
:100AA0001B68DA6ABB6A9A4201D201F0FBFCFB695F
:100AB00018462037BD4680BD300100205800002078
:100AC0003C0100204C010020380100205C00002087
:100AD00080B584B000AF78600023FB607B68002B9A
:100AE00028D0184B1B68002B02D001F023FDFEE735
:100AF00000F068F8144B1A687B681344BB60134B12
:100B00001B680433184600F017FF0346002B0BD177
:100B10000E4B1B68DB6A012202FA03F3DA430C4B2B
:100B20001B681A400A4B1A60B86800F03FFC00F0DE
:100B300057F8F860FB68002B01D101F0B3FC1037C7
:100B4000BD4680BD50010020340100205800002027
:100B50003801002080B586B004AF00230093002345
:100B60000193002302930023039312481249822227
:100B70000023FFF7FBFE78607B68012B02D1FFF7B3
:100B800061FC78607B68012B0AD101F0D3FC0B4B30
:100B900001221A600A4B00221A6001F01BFC05E0DA
:100BA0007B68002B02D101F0C5FCFEE70837BD468B
:100BB00080BD00BF051200089C2A00083C010020EF
:100BC0003401002080B400AF044B1B685A1C034B57
:100BD0001A60BD465DF8047B704700BF50010020DD
:100BE00080B582B000AF00237B60374B1B68002BC1
:100BF00002D101F09FFCFEE701F064FC324B1B6860
:100C00005A1E314B1A60304B1B68002B55D12F4BAD
:100C10001B68002B51D02EE02D4BDB68DB683B605E
:100C20003B681833184600F087FE3B6804331846CB
:100C300000F082FE3B68DB6A01229A40254B1B686C
:100C40001A43244B1A603B68DA6A13469B0013442C
:100C50009B00214A1A443B6804331046194600F0B1
:100C60000FFE3B68DA6A1D4B1B68DB6A9A4202D3AF
:100C70001B4B01221A60164B1B68002BCCD1194B61
:100C80001B68002B11D00CE000F040F80346002B4D
:100C900002D0134B01221A60124B1B685A1E114BD3
:100CA0001A60104B1B68002BEED10D4B1B68012BFB
:100CB00003D101237B6001F0F5FB01F023FC7B688D
:100CC00018460837BD4680BD500100203001002085
:100CD000F0000020380100205C00002058000020B7
:100CE000440100204001002080B582B000AF01F037
:100CF000E9FB054B1B687B6001F004FC7B68184630
:100D00000837BD4680BD00BF3401002080B586B0E5
:100D100000AF00237B614D4B1B68002B40F08680A9
:100D20004B4B1B685A1C4A4B1A60494B1B683B6172
:100D30003B69002B18D1474B1B681B68002B02D066
:100D400001F0F8FBFEE7434B1B68FB60424B1A685F
:100D5000404B1A60404BFA681A60404B1B685A1CA3
:100D60003E4B1A6000F09AFB3D4B1B683A699A4271
:100D70004DD3384B1B681B68002B01D1012300E0C9
:100D80000023002B04D0364B4FF0FF321A603EE0B8
:100D9000304B1B68DB68DB68BB60BB685B687B60F3
:100DA0003A697B689A4203D22D4B7A681A602EE02A
:100DB000BB680433184600F0BFFDBB689B6A002B7C
:100DC00004D0BB681833184600F0B6FDBB68DB6A78
:100DD00001229A40234B1B681A43224B1A60BB68BE
:100DE000DA6A13469B0013449B001F4A1A44BB68EF
:100DF00004331046194600F043FDBB68DA6A1B4B0A
:100E00001B68DB6A9A4201D301237B61B1E7174B70
:100E10001B68DA6A144913469B0013449B000B4479
:100E20001B68012B07D901237B6104E0104B1B6871
:100E30005A1C0F4B1A600F4B1B68002B01D001236B
:100E40007B617B6918461837BD4680BD5001002084
:100E500034010020E8000020EC00002048010020C0
:100E600000000020380100205C0000205800002015
:100E7000400100204401002080B584B000AF344B15
:100E80001B68002B03D0334B01221A605CE0314B0E
:100E900000221A60304B1B681A682F4B1B681B6BB3
:100EA0009A4208D82C4B1A682B4B1B6834331046D7
:100EB0001946FFF795FA284B1B681B6B1846274904
:100EC000142201F0C7FC0346002B08D0224B1A68FD
:100ED000214B1B68343310461946FFF781FA204B2B
:100EE0001B687B607B68B3FA83F3FB70FB78C3F10C
:100EF0001F03FB601B49FA6813469B0013449B00C9
:100F00000B441B68002B02D101F014FBFEE7FA68CA
:100F100013469B0013449B00124A1344BB60BB68FA
:100F20005B685A68BB685A60BB685A68BB6808331C
:100F30009A4204D1BB685B685A68BB685A60BB6858
:100F40005B68DA68044B1A601037BD4680BD00BF8D
:100F5000500100204401002058000020A42A00086D
:100F6000380100205C00002080B584B000AF7860BC
:100F700039607B68002B02D101F0DCFAFEE7194BE7
:100F80001B6818337868194600F09EFC154B1B68E7
:100F90000433184600F0D0FC0346002B0BD1114B54
:100FA0001B68DB6A012202FA03F3DA430E4B1B686B
:100FB0001A400D4B1A603B68B3F1FF3F07D1094B54
:100FC0001B6804330948194600F05AFC07E0084B37
:100FD0001A683B681344FB60F86800F0E7F91037C3
:100FE000BD4680BD58000020380100201C010020B3
:100FF0003401002080B584B000AF786039607B6830
:10100000002B02D101F096FAFEE7134B1B68183350
:101010007868194600F034FC0F4B1B6804331846FF
:1010200000F08AFC0346002B0BD10B4B1B68DB6ADC
:10103000012202FA03F3DA43084B1B681A40074BFC
:101040001A60074B1A683B681344FB60F86800F0AD
:10105000ADF91037BD4680BD580000203801002092
:101060003401002080B584B000AF78607B68DB6815
:10107000DB68BB60BB68002B02D101F05BFAFEE7C6
:10108000BB681833184600F057FC1D4B1B68002B3B
:101090001CD1BB680433184600F04EFCBB68DB6A09
:1010A00001229A40174B1B681A43164B1A60BB6803
:1010B000DA6A13469B0013449B00134A1A44BB6828
:1010C00004331046194600F0DBFB05E0BB6818331B
:1010D0000E48194600F0D4FBBB68DA6A0C4B1B685B
:1010E000DB6A9A4205D90123FB600A4B01221A6090
:1010F00001E00023FB60FB6818461037BD4680BD49
:1011000050010020380100205C000020F000002089
:10111000580000204401002080B582B000AF786004
:101120007B68002B02D101F005FAFEE7054B1A6837
:101130007B681A60044B1A687B685A600837BD46A2
:1011400080BD00BF480100203401002080B584B07C
:1011500000AF786039607B68002B02D101F0EAF9BA
:10116000FEE73B68002B02D101F0E4F9FEE701F055
:10117000A9F91C4B1B68BB603B681B68B3F1FF3FC0
:1011800002D10023FB6026E07B681A68164B1B68BF
:101190009A4207D07B685A68BB689A4202D80123FA
:1011A000FB6018E07B685B68BA68D21A3B681B6812
:1011B0009A420ED23B681A687B685968BB68CB1AA2
:1011C0001A443B681A607868FFF7A6FF0023FB60AB
:1011D00001E00123FB6001F095F9FB681846103728
:1011E000BD4680BD340100204801002080B400AF1E
:1011F000034B01221A60BD465DF8047B704700BFB7
:101200004401002080B582B000AF786000F094F80F
:10121000044B1B68012B01D901F044F9FFF7E8F8F2
:10122000F4E700BF5C00002080B586B000AFF86036
:10123000B9607A603B6000237B6112E0BA687B6929
:1012400013441A78F9687B690B4430331A71BA6811
:101250007B6913441B78002B00D105E07B690133C7
:101260007B617B69092BE9D9FB68002283F83D206B
:101270007B68042B01D904237B60FB687A68DA62FF
:10128000FB687A689A64FB680022DA64FB680433BE
:10129000184600F0E9FAFB681833184600F0E4FA43
:1012A000FB68FA681A617B68C3F10502FB689A6102
:1012B000FB68FA685A621837BD4680BD80B582B0B7
:1012C00000AF00237B600CE07A6813469B00134458
:1012D0009B00114A1344184600F0A6FA7B680133BC
:1012E0007B607B68042BEFD90C4800F09DFA0C481A
:1012F00000F09AFA0B4800F097FA0B4800F094FAC5
:101300000A4800F091FA0A4B044A1A60094B044A51
:101310001A600837BD4680BD5C000020C000002078
:10132000D4000020F0000020040100201C01002057
:10133000E8000020EC00002080B582B000AF28E07B
:10134000FFF740FC164B1B68002B14BF0023012342
:10135000DBB27B60FFF744FC7B68002B19D101F006
:10136000B1F80F4BDB68DB683B603B680433184621
:1013700000F0E2FA0B4B1B685A1E0A4B1A600A4B2C
:101380001B685A1E084B1A6001F0BCF8386800F060
:1013900075F8054B1B68002BD2D10837BD4680BDC0
:1013A00004010020300100201801002080B582B027
:1013B00000AF7860134B1B687A685A60124B1B6849
:1013C0007A689A4209D2114B1A680E4B1B68043393
:1013D0001046194600F078FA10E00D4B1A68094BD8
:1013E0001B6804331046194600F06EFA094B1B685F
:1013F0007A689A4202D2074B7A681A600837BD466B
:1014000080BD00BF5800002034010020EC00002007
:10141000E80000200000002080B584B000AF034643
:101420003960FB80502001F023F9F860FB68002B45
:101430001FD03B68002B06D1FB889B00184601F0AB
:1014400017F9034600E03B68FA681363FB681B6BFF
:10145000002B05D1F86801F09DF90023FB6008E03E
:10146000FB681A6BFB889B001046A5211A4601F009
:10147000BFFAFB6818461037BD4680BD80B582B004
:1014800000AF78607B681B6B184601F083F97868C1
:1014900001F080F90837BD4680BD00BF80B483B03D
:1014A00000AF0E4B1B681B68002B01D1012300E02D
:1014B0000023002B04D00A4B4FF0FF321A6008E0E3
:1014C000064B1B68DB68DB687B607B685A68044BF3
:1014D0001A600C37BD465DF8047B7047E8000020B9
:1014E0000000002080B483B000AF0B4B1B68002BC2
:1014F00002D101237B6008E0084B1B68002B02D15E
:1015000002237B6001E000237B607B6818460C3778
:10151000BD465DF8047B70473C010020500100206F
:1015200080B584B000AF78607B68FB607B68002B7F
:1015300062D0FB68DA6A324B1B68DB6A9A425BD284
:10154000FB689B69002B06DB2D4B1B68DB6AC3F134
:101550000502FB689A61FB685969FB68DA6A134601
:101560009B0013449B00274A1344994201D1012355
:1015700000E00023002B3AD0FB680433184600F04B
:10158000DBF90346002B15D1FB68DA6A1D491346C7
:101590009B0013449B000B441B68002B0AD1FB6883
:1015A000DB6A012202FA03F3DA43174B1B681A4085
:1015B000154B1A60124B1B68DA6AFB68DA62FB682B
:1015C000DB6A01229A40104B1B681A430E4B1A60CB
:1015D000FB68DA6A13469B0013449B00094A1A44CD
:1015E000FB6804331046194600F04AF904E0044B46
:1015F0001B68DA6AFB68DA621037BD4680BD00BF3F
:10160000580000205C0000203801002080B584B024
:1016100000AF78607B68BB600023FB607B68002BB9
:1016200056D0BB68DB6C002B02D100F083FFFEE7D5
:10163000BB68DB6C5A1EBB68DA64BB68DA6ABB68DD
:101640009B6C9A4244D0BB68DB6C002B40D1BB68DA
:101650000433184600F070F90346002B15D1BB681F
:10166000DA6A1E4913469B0013449B000B441B6817
:10167000002B0AD1BB68DB6A012202FA03F3DA43CA
:10168000174B1B681A40164B1A60BB689A6CBB68F4
:10169000DA62BB68DB6AC3F10502BB689A61BB68AA
:1016A000DB6A01229A400E4B1B681A430C4B1A60EE
:1016B000BB68DA6A13469B0013449B00074A1A442E
:1016C000BB6804331046194600F0DAF80123FB60CA
:1016D000FB6818461037BD4680BD00BF5C00002087
:1016E0003801002080B400AF074B1B68002B04D0EA
:1016F000054B1B68DA6C0132DA64034B1B68184631
:10170000BD465DF8047B70475800002080B487B068
:1017100000AF7860396000237B6100233B610023C8
:10172000FB6000237B6176E07B69012202FA03F310
:101730003B613B681A683B691340FB60FA683B6990
:101740009A4265D17B681A687B695B00032101FAC4
:1017500003F3DB431A407B681A607B681A683B68B6
:101760001B7919467B695B0001FA03F31A437B6816
:101770001A603B681B79012B03D03B681B79022B55
:101780002ED17B689A687B695B00032101FA03F321
:10179000DB431A407B689A607B689A683B685B7998
:1017A00019467B695B0001FA03F31A437B689A6070
:1017B0007B685A687B699BB2012101FA03F3DB4322
:1017C0001A407B685A607B685A683B689B79194667
:1017D0007B699BB201FA03F39BB21A437B685A60A0
:1017E0007B68DA687B699BB25B00032101FA03F333
:1017F000DB431A407B68DA607B68DA683B68DB7938
:1018000019467B695B0001FA03F31A437B68DA60CF
:101810007B6901337B617B690F2B85D91C37BD4602
:101820005DF8047B704700BF80B483B000AF786080
:101830007B6803F108027B685A607B684FF0FF32D7
:101840009A607B6803F108027B68DA607B6803F1C9
:1018500008027B681A617B6800221A600C37BD465B
:101860005DF8047B704700BF80B483B000AF786040
:101870007B6800221A610C37BD465DF8047B704717
:1018800080B485B000AF786039607B685B68FB60CE
:101890003B68FA685A60FB689A683B689A60FB6824
:1018A0009B683A685A60FB683A689A603B687A6855
:1018B0001A617B681B685A1C7B681A601437BD4626
:1018C0005DF8047B704700BF80B485B000AF7860DE
:1018D00039603B681B68BB60BB68B3F1FF3F03D155
:1018E0007B681B69FB600CE07B680833FB6002E0EF
:1018F000FB685B68FB60FB685B681A68BB689A42C0
:10190000F6D9FB685A683B685A603B685B683A687E
:101910009A603B68FA689A60FB683A685A603B686C
:101920007A681A617B681B685A1C7B681A601437D6
:10193000BD465DF8047B704780B485B000AF786029
:101940007B681B69FB607B685B687A6892689A6059
:101950007B689B687A6852685A60FB685A687B6843
:101960009A4203D17B689A68FB685A607B680022C0
:101970001A61FB681B685A1EFB681A60FB681B68CB
:1019800018461437BD465DF8047B704780B500AF3C
:10199000154B154AD2F8882042F47002C3F888200B
:1019A000124B124A126842F001021A600F4B0022D9
:1019B0009A600E4A0D4B1B6823F0847323F4803326
:1019C00013600A4B0A4A5A60084B084A126822F40C
:1019D00080221A60054B0022DA6000F00BF8024BFF
:1019E0004FF000629A6080BD00ED00E000380240D8
:1019F0001030002480B483B000AF00237B6000234C
:101A00003B60354B344A126842F480321A60324BE4
:101A10001B6803F400333B607B6801337B603B68E9
:101A2000002B03D17B68B3F5A06FF0D12A4B1B6864
:101A300003F40033002B02D001233B6001E00023BC
:101A40003B603B68012B42D1234B234A126C42F08E
:101A500080521A64214B214A126842F480421A6073
:101A60001D4B1D4A92689A601B4B1B4A926842F4B8
:101A700000429A60184B184A926842F4A0529A6049
:101A8000154B174A5A60144B134A126842F0807281
:101A90001A6000BF104B1B6803F00073002BF9D0D5
:101AA000104B40F205621A600B4B0B4A926822F011
:101AB00003029A60084B084A926842F002029A6058
:101AC00000BF054B9B6803F00C03082BF9D10C37C2
:101AD000BD465DF8047B704700380240007000404E
:101AE00008544007003C024080B584B000AF7860E5
:101AF00039607B68FB60FB68002B02D100F01AFDA7
:101B0000FEE700F0DFFCFB681A68FB68DB6BF96836
:101B1000096C01FB03F31A44FB685A60FB6800225E
:101B20009A63FB681A68FB689A60FB681A68FB682E
:101B3000DB6B013BF968096C01FB03F31A44FB689A
:101B4000DA60FB684FF0FF325A64FB684FF0FF32F7
:101B50009A643B68002B0ED1FB681B69002B14D0E4
:101B6000FB6810331846FFF77DFA0346012B0CD1B2
:101B700000F098FC09E0FB6810331846FFF754FEAC
:101B8000FB6824331846FFF74FFE00F0BBFC01232F
:101B900018461037BD4680BD80B588B000AFF860EC
:101BA000B9601346FB710023FB61FB68002B2AD050
:101BB000542000F05DFDB861BB69002B23D0FB68A9
:101BC000BA6802FB03F301337B61786900F050FDD2
:101BD0000246BB691A60BB691B68002B10D0BB6949
:101BE000FA68DA63BB69BA681A64B8690121FFF759
:101BF0007BFFBB69FA7983F85020BB69FB6102E087
:101C0000B86900F0C7FDFB69002B02D100F092FC1F
:101C1000FEE7FB6918462037BD4680BD80B58AB017
:101C200000AFF860B9607A603B6000237B62FB68BC
:101C30003B623B6A002B02D100F07CFCFEE7BB68F4
:101C4000002B03D13B6A1B6C002B01D1012300E068
:101C50000023002B02D100F06DFCFEE73B68022B55
:101C600003D13B6ADB6B012B01D1012300E0002390
:101C7000002B02D100F05EFCFEE7FFF733FC0346C9
:101C8000002B02D17B68002B01D1012300E000234F
:101C9000002B02D100F04EFCFEE700F013FC3B6A83
:101CA0009A6B3B6ADB6B9A4202D33B68022B1DD1D5
:101CB000386AB9683A6800F0C9F9F8613B6A5B6A4A
:101CC000002B0AD03B6A24331846FFF7CBF90346B2
:101CD000012B07D100F0E6FB04E0FB69002B01D0EB
:101CE00000F0E0FB00F00EFC012359E07B68002BC4
:101CF00003D100F007FC002352E07B6A002B06D1E1
:101D000007F114031846FFF707FA01237B6200F07E
:101D1000F9FBFEF757FF00F0D5FB3B6A5B6CB3F1B4
:101D2000FF3F02D13B6A00225A643B6A9B6CB3F1CD
:101D3000FF3F02D13B6A00229A6400F0E3FB07F107
:101D400014023B1D10461946FFF700FA0346002B0C
:101D50001ED1386A00F070FA0346002B12D03B6A9D
:101D600003F110027B6810461946FFF7FDF8386A48
:101D700000F000FAFEF734FF0346002B0FD100F00D
:101D800091FB0CE0386A00F0F5F9FEF729FF84E7D3
:101D9000386A00F0EFF9FEF723FF002300E07CE74C
:101DA00018462837BD4680BD80B588B000AFF860C2
:101DB000B9607A603B60FB68BB61BB69002B02D1F4
:101DC00000F0B8FBFEE7BB68002B03D1BB691B6CBE
:101DD000002B01D1012300E00023002B02D100F0F1
:101DE000A9FBFEE73B68022B03D1BB69DB6B012B30
:101DF00001D1012300E00023002B02D100F09AFB67
:101E0000FEE700F009FC00F095FB7861BB699A6B76
:101E1000BB69DB6B9A4202D33B68022B2DD1B869B8
:101E2000B9683A6800F012F90346002B05D07B68C8
:101E3000002B02D07B6801221A60BB699B6CB3F156
:101E4000FF3F12D1BB695B6A002B13D0BB692433FF
:101E50001846FFF707F90346002B0BD07B68002BD1
:101E600008D07B6801221A6004E0BB699B6C5A1C95
:101E7000BB699A640123FB6101E00023FB6178697F
:101E800000F062FBFB6918462037BD4680BD00BFED
:101E900080B58AB000AFF860B9607A603B6000231B
:101EA0007B62FB683B623B6A002B02D100F042FB85
:101EB000FEE7BB68002B03D13B6A1B6C002B01D1F2
:101EC000012300E00023002B02D100F033FBFEE7EA
:101ED000FFF708FB0346002B02D17B68002B01D1E2
:101EE000012300E00023002B02D100F023FBFEE7DA
:101EF00000F0E8FA3B6A9B6B002B3BD03B6ADB6847
:101F0000FB61386AB96800F00FF93B68002B1CD1FF
:101F10003B6A9B6B5A1E3B6A9A633B6A1B68002BA9
:101F200004D1FFF7DFFB02463B6A5A603B6A1B693C
:101F3000002B1BD03B6A10331846FFF793F803467B
:101F4000012B13D100F0AEFA10E03B6AFA69DA60B7
:101F50003B6A5B6A002B09D03B6A24331846FFF7C3
:101F600081F80346002B01D000F09CFA00F0CAFA79
:101F7000012366E07B68002B03D100F0C3FA002345
:101F80005FE07B6A002B06D107F114031846FFF7C8
:101F9000C3F801237B6200F0B5FAFEF713FE00F0F0
:101FA00091FA3B6A5B6CB3F1FF3F02D13B6A0022BE
:101FB0005A643B6A9B6CB3F1FF3F02D13B6A00223B
:101FC0009A6400F09FFA07F114023B1D104619466F
:101FD000FFF7BCF80346002B2BD1386A00F016F946
:101FE0000346002B1FD03B6A1B68002B08D100F072
:101FF00069FA3B6A5B681846FFF792FA00F082FACA
:102000003B6A03F124027B6810461946FEF7ACFFD9
:10201000386A00F0AFF8FEF7E3FD0346002B0FD15E
:1020200000F040FA0CE0386A00F0A4F8FEF7D8FDA2
:102030005EE7386A00F09EF8FEF7D2FD002300E06C
:1020400056E718462837BD4680BD00BF80B586B02C
:1020500000AFF860B9607A6000237B61FB681B6C9D
:10206000002B0DD1FB681B68002B52D1FB685B680D
:102070001846FFF7CBFA7861FB6800225A6048E007
:102080007B68002B1AD1FB689A68FB681B6C1046B2
:10209000B9681A4600F012FCFB689A68FB681B6C72
:1020A0001A44FB689A60FB689A68FB685B689A420E
:1020B0002FD3FB681A68FB689A602AE0FB68DA682D
:1020C000FB681B6C1046B9681A4600F0F7FBFB680A
:1020D000DA68FB681B6C5B421A44FB68DA60FB68D9
:1020E000DA68FB681B689A4207D2FB685A68FB688B
:1020F0001B6C5B421A44FB68DA607B68022B08D1D8
:10210000FB689B6B002B04D0FB689B6B5A1EFB6823
:102110009A63FB689B6B5A1CFB689A637B69184641
:102120001837BD4680BD00BF80B582B000AF786073
:1021300039607B681B6C002B19D07B68DA687B6880
:102140001B6C1A447B68DA607B68DA687B685B68C2
:102150009A4203D37B681A687B68DA607B68DA6826
:102160007B681B6C386811461A4600F0A7FB0837DD
:10217000BD4680BD80B582B000AF786000F0A2F9A6
:1021800014E07B685B6A002B0AD07B682433184616
:10219000FEF768FF0346002B03D0FFF727F800E0A7
:1021A00008E07B689B6C5A1E7B689A647B689B6C1A
:1021B000002BE6DC7B684FF0FF329A6400F0A2F956
:1021C00000F080F914E07B681B69002B0FD07B685E
:1021D00010331846FEF746FF0346002B01D0FFF7E9
:1021E00005F87B685B6C5A1E7B685A6400E003E06C
:1021F0007B685B6C002BE6DC7B684FF0FF325A6437
:1022000000F080F90837BD4680BD00BF80B584B0BE
:1022100000AF786000F056F97B689B6B002B02D111
:102220000123FB6001E00023FB6000F06BF9FB6819
:1022300018461037BD4680BD80B584B000AF7860C9
:1022400000F040F97B689A6B7B68DB6B9A4202D1A5
:102250000123FB6001E00023FB6000F053F9FB6801
:1022600018461037BD4680BD80B485B000AF786099
:1022700039600023FB6014E00E4BFA6853F83230EB
:10228000002B0BD10B4BFA68396843F83210094A1E
:10229000FB68DB0013447A685A6005E0FB68013391
:1022A000FB60FB68072BE7D91437BD465DF8047B5C
:1022B000704700BF702D012080B584B000AF7860FA
:1022C00039607B68FB6000F0FDF8FB685B6CB3F184
:1022D000FF3F02D1FB6800225A64FB689B6CB3F19C
:1022E000FF3F02D1FB6800229A6400F00BF9FB6803
:1022F0009B6B002B05D1FB68243318463968FEF729
:1023000079FEF868FFF736FF1037BD4680BD00BF85
:1023100080B485B000AFF860B9607A60FB68043BB8
:10232000FB60FB684FF080721A60FB68043BFB6047
:10233000BA68FB681A60FB68043BFB600C4AFB68E8
:102340001A60FB68143BFB607A68FB681A60FB68E4
:10235000043BFB60FB686FF002021A60FB68203BE5
:10236000FB60FB6818461437BD465DF8047B704778
:102370007523000880B500AF054B1B68B3F1FF3F24
:1023800002D000F0D7F8FEE700F0D4F8FEE700BF77
:1023900018000020064B19680868B0E8F04F80F379
:1023A0000988BFF36F8F4FF0000080F311887047EA
:1023B0005800002006480068006880F3088862B66C
:1023C00061B6BFF34F8FBFF36F8F00DF00BF000018
:1023D00008ED00E080B584B000AF2C4BFB60FB68DB
:1023E0001B78DBB2BB60FB68FF221A70FB681B78AE
:1023F000DBB2FB71FB79DBB203F05003DAB2244BA2
:102400001A70244B07221A6009E0224B1B685A1EDF
:10241000204B1A60FB79DBB25B00DBB2FB71FB790E
:10242000DBB2DBB25BB2002BEFDB1A4B1B681A028C
:10243000184B1A60174B1B6803F4E062154B1A60C7
:10244000BB68DAB2FB681A70134B134A126842F485
:1024500070021A60104B104A126842F070421A6003
:1024600000F0B6F80D4B00221A6000F0CBF80C4BD0
:102470000B4A126842F040421A60FFF79BFFFFF7D9
:1024800079FF002318461037BD4680BD00E400E008
:10249000540100205801002020ED00E01800002029
:1024A00034EF00E080B400AF054B4FF080521A606B
:1024B000BFF34F8FBFF36F8FBD465DF8047B70474E
:1024C00004ED00E080B500AF00F034F80B4B1B6862
:1024D0005A1C0A4B1A60BFF34F8FBFF36F8F074B25
:1024E0001B68012B08D1064B1B6803F01F03002B50
:1024F00002D000F01FF8FEE780BD00BF18000020EA
:1025000004ED00E080B500AF094B1B68002B02D141
:1025100000F010F8FEE7064B1B685A1E044B1A60C9
:10252000034B1B68002B02D1002000F00DF880BD8A
:1025300018000020EFF311804FF0500181F3118853
:1025400070470023184600BF80F31188704700BF12
:10255000EFF30980BFF36F8F124B1A681EF0100F54
:1025600008BF20ED108A20E9F04F10604DF8043DBF
:102570004FF0500080F31188FEF77EFC4FF0000012
:1025800080F3118808BC19680868B0E8F04F1EF0A5
:10259000100F08BFB0EC108A80F30988BFF36F8F6B
:1025A000704700BF5800002080B500AFFFF7C2FFA2
:1025B000FEF7ACFB0346002B03D0044B4FF08052D8
:1025C0001A600020FFF7C0FF80BD00BF04ED00E0EF
:1025D00080B400AF074B084A1168084AA2FB010209
:1025E0009209013A1A60064B07221A60BD465DF84F
:1025F000047B704714E000E004000020D34D62101B
:1026000010E000E0DFF80C00016841F470010160A7
:102610007047000088ED00E080B582B000AFEFF3B6
:1026200005837B607B680F2B0CD90D4A7B681344B4
:102630001B78FB700B4B1B78FA789A4202D2FFF79B
:1026400079FFFEE7084B1B6803F4E062074B1B6849
:102650009A4202D9FFF76EFFFEE70837BD4680BDFC
:10266000F0E300E0540100200CED00E058010020F0
:1026700080B588B000AF786000237B61FEF7A2FAD6
:102680003F4B1B68002B04D100F0BCF83C4B0122EF
:102690001A607B68002B0DD008237A6813447B6096
:1026A0007B6803F00703002B04D07B6823F007034B
:1026B00008337B607B68002B56D07A68314B9A4296
:1026C00052D8314BBB61304B1B68FB6104E0FB69A6
:1026D000BB61FB691B68FB61FB695A687B689A42B6
:1026E00003D2FB691B68002BF1D1FA69274B9A4290
:1026F0003AD0BB691A68082313447B61FB691A68E6
:10270000BB691A60FB695A687B68D21A08235B00B0
:102710009A4222D9FA697B681344FB60FB695A68C4
:102720007B68D21AFB685A60FB697A685A60FB685A
:102730005B68BB60144B3B6102E03B691B683B611B
:102740003B691B685A68BB689A42F6D33B691A68B2
:10275000FB681A603B69FA681A600D4B1A68FB69DE
:102760005B68D21A0A4B1A60FEF73AFA7B69002BB3
:1027700001D1FDF743FE7B6918462037BD4680BD79
:102780006C2D0120F72B01005C2D0120642D012010
:102790001C00002080B586B000AF78607B683B618C
:1027A0007B68002B27D008235B423A6913443B61C6
:1027B0003B69FB60FEF706FAFB685B68BB600F4B8A
:1027C0007B6102E07B691B687B617B691B685A68DF
:1027D000BB689A42F6D37B691A68FB681A607B690A
:1027E000FA681A60FB685A68054B1B681A44044B68
:1027F0001A60FEF7F5F91837BD4680BD5C2D012043
:102800001C00002080B483B000AF0E4B23F0070300
:102810007B600D4B7A681A600B4B00225A600B4BA1
:102820000B4A5A60094B00221A607B683B603B6888
:10283000074A5A603B68054A1A600C37BD465DF886
:10284000047B7047640100205C2D0120642D012071
:10285000F82B0100032A70B428D940EA01039B0732
:1028600013D005780C78A54224D1013A002305E065
:1028700010F8015F11F8014FA5421BD1934203F1FB
:102880000103F5D1002070BC70470C460346256853
:102890001E68AE422146184604F1040403F1040305
:1028A00004D1043A032A18462146F0D8002AD8D188
:1028B0001046E8E7281B70BC704700BF844641EA19
:1028C000000313F003036DD1403A41D351F8043BA8
:1028D00040F8043B51F8043B40F8043B51F8043BFA
:1028E00040F8043B51F8043B40F8043B51F8043BEA
:1028F00040F8043B51F8043B40F8043B51F8043BDA
:1029000040F8043B51F8043B40F8043B51F8043BC9
:1029100040F8043B51F8043B40F8043B51F8043BB9
:1029200040F8043B51F8043B40F8043B51F8043BA9
:1029300040F8043B51F8043B40F8043B51F8043B99
:1029400040F8043B51F8043B40F8043B403ABDD208
:10295000303211D351F8043B40F8043B51F8043BAA
:1029600040F8043B51F8043B40F8043B51F8043B69
:1029700040F8043B103AEDD20C3205D351F8043B39
:1029800040F8043B043AF9D2043208D0D2071CBF05
:1029900011F8013B00F8013B01D30B88038060462E
:1029A000704700BF082A13D38B078DD010F00303A4
:1029B0008AD0C3F10403D21ADB071CBF11F8013B14
:1029C00000F8013B80D331F8023B20F8023B7BE763
:1029D000043AD9D3013A11F8013B00F8013BF9D28E
:1029E0000B7803704B7843708B7883706046704728
:1029F000F0B4840743D0541E002A3ED0CDB2034623
:102A000003E0621E002C38D0144603F8015B9A07DD
:102A1000F7D1032C2AD9CDB245EA05250F2C45EA7A
:102A2000054515D9A4F110073F0903F1100606EB7F
:102A300007161A46156055609560D5601032B2428F
:102A4000F8D104F00F040137032C03EB07130DD961
:102A50001E462246043A032A46F8045BFAD8221F8F
:102A600022F003020432134404F003042CB1C9B26F
:102A70001C4403F8011BA342FBD1F0BC7047144671
:102A80000346C6E74C45447800000000546D7220B0
:102A900053766300546D72510000000049444C4568
:102AA00000000000A5A5A5A5A5A5A5A5A5A5A5A56A
:082AB000A5A5A5A5A5A5A5A5F6
:102AB800FFFFFFFF007A030A00000000000000008B
:102AC8000102030406070809AAAAAAAAF82B01000A
:0400000508000000EF
:00000001FF
