:020000040800F2
:10000000103E0120D90800084509000845090008EC
:1000100045090008450900084509000800000000DE
:10002000000000000000000000000000652500083E
:100030004509000800000000212700087927000872
:100040004509000845090008450900084509000858
:100050004509000845090008450900084509000848
:100060004509000845090008450900084509000838
:100070004509000845090008450900084509000828
:100080004509000845090008450900084509000818
:100090004509000845090008450900084509000808
:1000A00045090008450900084509000845090008F8
:1000B00045090008450900084509000845090008E8
:1000C00045090008450900084509000845090008D8
:1000D00045090008450900084509000845090008C8
:1000E00045090008450900084509000845090008B8
:1000F00045090008450900084509000845090008A8
:100100004509000845090008450900084509000897
:100110004509000845090008450900084509000887
:100120004509000845090008450900084509000877
:100130004509000845090008450900084509000867
:100140004509000845090008450900084509000857
:100150004509000845090008450900084509000847
:100160004509000845090008450900084509000837
:100170004509000845090008450900084509000827
:10018000450900084509000880B582B000AF3A2053
:10019000012100F0F1FC4CF233733B6002233B7110
:1001A00002237B710023BB710023FB713B465A483D
:1001B000194601F045FF584800210C2201F0EAFFE2
:1001C000554801210C2201F0E5FF534804210C227F
:1001D00001F0E0FF504805210C2201F0DBFF4E4802
:1001E00008210C2201F0D6FF4B4809210C2201F016
:1001F000D1FF49480A210C2201F0CCFF46480E21CC
:100200000C2201F0C7FF44480F210C2201F0C2FF6D
:100210004FF680733B603B464048194601F010FFA3
:100220003E4807210C2201F0B5FF3C4808210C2272
:1002300001F0B0FF394809210C2201F0ABFF37482B
:100240000A210C2201F0A6FF34480B210C2201F0F8
:10025000A1FF32480C210C2201F09CFF2F480D21F8
:100260000C2201F097FF2D480E210C2201F092FF85
:100270002A480F210C2201F08DFF08233B603B46EA
:100280002648194601F0DCFE244803210C2201F027
:1002900081FF80233B603B461F48194601F0D0FE9A
:1002A0001D480A210C2201F075FF08233B60012341
:1002B0003B7100237B710023BB710023FB713B4624
:1002C0001548194601F0BCFE4FF400533B60012372
:1002D0003B7101237B710023BB710023FB713B4603
:1002E0000D48194601F0ACFE0B484FF4005101F0E7
:1002F00035FF4FF400633B6001233B7100237B71AA
:100300000023BB710023FB713B460348194601F0F3
:1003100097FE0837BD4680BD000C02400010024029
:1003200080B596B000AF0120012100F043FC01230D
:100330003B6000237B600923BB600023FB6000233C
:100340003B6100237B610023BB610023FB61002331
:100350003B6200237B621023BB620023FB6200230D
:100360003B6300237B630023BB630023FB634FF4E9
:1003700080533B6400237B640023BB640023FB6445
:100380003B463B653B467B6507F11C03184601F085
:1003900093FD0020012101F029FE5837BD4680BDA4
:1003A00080B582B000AFFFF7EFFEFFF7B9FF052081
:1003B00000F03CFA5E48082101F0DEFE0A2000F061
:1003C00035FA5B48082101F0C9FE1020012100F038
:1003D000C7F81E20B22100F0C3F82820062100F043
:1003E000BFF80020012100F0BBF8012043F2EF012B
:1003F00000F0B6F802204FF4C06100F0B1F8102010
:10040000002100F0ADF8052000F010FA11204EF2A6
:10041000300100F0A5F8122040F6991100F0A0F884
:1004200026204FF4605100F09BF80720332100F0A4
:1004300097F80B2044F2103100F092F80C200521BF
:1004400000F08EF83020002100F08AF8312040F2D0
:10045000033100F085F8322040F2074100F080F8C7
:10046000332040F2013100F07BF8342040F20131BA
:1004700000F076F8352040F2034100F071F83620A4
:1004800040F2077100F06CF837204FF4806100F003
:1004900067F83A204FF4206100F062F83B204FF4F7
:1004A000805100F05DF80D200A2100F059F80E206F
:1004B0004FF4385100F054F81720002100F050F8A4
:1004C00044204FF46F4100F04BF84520002100F02C
:1004D00047F8462040F23F1100F042F84E2000213C
:1004E00000F03EF84F20002100F03AF822200021D1
:1004F00000F036F800237B6005E0002000F050F8A3
:100500007B6801337B607B68B3F5963FF5D3094880
:1005100000F076F84FF6FF7000F08CF8002000F045
:100520004FF84FF6FF7000F05BF80837BD4680BD0E
:10053000000C02404C00002080B582B000AF0246A3
:100540000B46FA80BB80FB884E20194600F008F865
:10055000BB884F20194600F003F80837BD4680BD20
:1005600080B483B000AF02460B46FA71BB804FF0F7
:10057000C043FA7992B21A80034BBA881A800C37BA
:10058000BD465DF8047B70470000106080B400AF8A
:100590004FF0C04322221A80BD465DF8047B7047AD
:1005A00080B483B000AF0346FB80044BFA881A8006
:1005B0000C37BD465DF8047B704700BF000010603B
:1005C00080B483B000AF0346FB80FB889AB2034B34
:1005D0001A800C37BD465DF8047B7047740000201C
:1005E00080B483B000AF0346FB80FB889AB2034B14
:1005F0001A800C37BD465DF8047B70470000002070
:1006000080B483B000AF7860034B7A681A600C370F
:10061000BD465DF8047B70477000002080B400AFD9
:10062000034B1B681846BD465DF8047B704700BF4E
:100630007000002080B584B000AF0346FB8000232B
:10064000FB6000200021FFF777FFFFF79FFF0023EB
:10065000FB6005E0064BFA881A80FB680133FB60FB
:10066000FB68B3F5963FF5D31037BD4680BD00BF9C
:100670000000106080B586B000AF0B463A600246BD
:10068000FA80BB8000237B6100233B610023FB8158
:10069000FB88FB81BA88FB8910461946FFF74CFF9F
:1006A00000237B6155E0FFF771FF00233B613DE0D4
:1006B0007B695B003A6813441B881A462A4B1B6807
:1006C00099882A4BA3FB0103DB089BB2DB00802146
:1006D00099403B6941FA03F31340002B04D1224BAC
:1006E0001B689B880C2B11D97B695B003A6813440B
:1006F0001B881A463B6942FA03F303F00103002BFF
:100700000BD1194B1B689B880C2B06D9184B1B88E7
:100710009BB21846FFF744FF05E0164B1B889BB2BF
:100720001846FFF73DFF3B6901333B610E4B1B68E9
:100730009B881A463B699A42BAD8FB890133FB81F0
:10074000BA88FB8910461946FFF7F6FE7B6901332C
:100750007B61054B1B68DB881A467B699A42A2D8ED
:100760001837BD4680BD00BF70000020ABAAAAAA02
:10077000000000207400002080B582B000AF134656
:100780000246FA800A46BA80FB70FB78203BFB7079
:100790000A4B1B681A68FB7808490968C98801FB7D
:1007A00003F35B001344F988BA88084611461A46D9
:1007B000FFF760FF0837BD4680BD00BF7000002016
:1007C00080B584B000AF03463960FB800023FB8115
:1007D00014484FF4006101F0C1FC16E03B681B783F
:1007E000F988FA89084611461A46FFF7C5FF0E4BED
:1007F0001B689A88FB891344FB81FB89B3F5A07FB2
:1008000000D306E03B6801333B603B681B78002B5C
:10081000E4D104484FF4006101F0AEFC1037BD464E
:1008200080BD00BF000C02407000002080B485B085
:1008300000AF78600023FB607B6842F2107202FB1D
:1008400003F3FB6002E0FB68013BFB60FB68002BED
:10085000F9D11437BD465DF8047B704780B582B08E
:1008600000AF14237B6078680421002202F040F876
:100870000246024B1A600837BD4680BD7800002052
:1008800080B582B000AF7860054B1B681846796868
:100890000022002302F06EF80837BD4680BD00BF7D
:1008A0007800002080B584B000AF7860094B1A68EA
:1008B00007F10C03104619467A68002302F094F9F8
:1008C0000346012B01D1FB6800E0002318461037D6
:1008D000BD4680BD7800002080B582B000AF134BCC
:1008E0007B60134B3B6007E03B681A1D3A607A68F7
:1008F000111D796012681A603A680E4B9A42F3D360
:100900000D480E494FF000028842B8BF40F8042B52
:10091000FFF6FAAFDFF82800016841F470010160CA
:1009200000F060F80837BD4680BD00BF245F0008B6
:100930000000002070000020700000200C2E01201C
:1009400088ED00E080B400AFFEE700BF80B584B062
:1009500000AF0346FB71FA79104B53F8223018466A
:10096000012100F009F9FA790D4B33F81230BB6020
:1009700001233B730023BB730123FB7302237B73AF
:10098000FA79084B53F8222007F10803104619465C
:1009900001F056FB1037BD4680BD00BF843400080F
:1009A0007C3400080400002080B483B000AF03460C
:1009B000FB71FA79094B53F82230F979074A52F85A
:1009C00021205169F879064A32F810204A405A61CC
:1009D0000C37BD465DF8047B704700BF0400002063
:1009E0007C34000880B500AF01F0CCFC0020FFF79C
:1009F000ADFFFFF7D5FCFFF711FE0346DB88184675
:100A00000649FFF7DDFEFFF729FF012000F008F897
:100A1000012000F041F800F073FCFEE7F834000814
:100A200080B586B004AF78607B68009300230193A3
:100A300000230293002303930448054982220023E4
:100A400000F06AFB0837BD4680BD00BF550A0008AC
:100A50001435000880B584B000AF78607D20FFF7C2
:100A600021FFF860F86800F001F8FBE780B582B07C
:100A700000AF786001F00EFEFFF7D0FD0346DB8883
:100A80005B009BB218467968FFF79AFE01F022FEE0
:100A90000837BD4680BD00BF80B588B004AF786020
:100AA0007D23FB60082002F0DFFAB860BB680022FB
:100AB0001A70BB68FA685A60BB685A68BB685A60AB
:100AC0007B68009300230193002302930023039388
:100AD000044805498222BB6800F01EFB1037BD4662
:100AE00080BD00BFED0A00082035000880B584B045
:100AF00000AF78600D48FFF7C3FE7B68FB60FB68C2
:100B00005B685B08184600F0B9FBFB681B78184669
:100B100000F00EF8FB685B685B08184600F0AEFB5F
:100B2000FB681B78184600F003F8E8E7F434000887
:100B300080B582B000AF0346FB7101F0ABFDFB79DD
:100B40001846FFF731FF01F0C5FD0837BD4680BDEF
:100B500080B582B000AF7860396001F0D3FDFEE768
:100B600080B400AFBD465DF8047B704780B500AF30
:100B700001F0C8FDFEE700BF80B483B000AF78602D
:100B80000B46FB70FB78002B06D0094B084A116B13
:100B90007A680A431A6306E0054B054A116B7A68C6
:100BA000D2430A401A630C37BD465DF8047B704798
:100BB0000038024080B483B000AF78600B46FB7011
:100BC000FB78002B06D0094B084A916B7A680A43E0
:100BD0009A6306E0054B054A916B7A68D2430A4056
:100BE0009A630C37BD465DF8047B704700380240BD
:100BF00080B586B004AF00237B6000F051FA0F4B44
:100C00001B68002B0FD002230093002301930023C5
:100C10000293002303930A480A494FF48272002387
:100C200000F07AFA78607B68002B02D101F06AFD4F
:100C3000FEE77B6818460837BD4680BDAC00002043
:100C4000450D00082835000880B588B000AFF86071
:100C5000B9607A603B600023FB611D4B1B68002B71
:100C600030D0BB683B617B687B61FB68BB61BB6864
:100C7000052B1CDC01F00CF80346022B0BD1144BA6
:100C80001A6807F1100310461946BA6A002301F0EA
:100C900071FEF86116E00E4B1A6807F1100310465A
:100CA00019460022002301F065FEF8610AE0084BB6
:100CB0001A6807F11003104619463A68002301F03C
:100CC0001FFFF861FB6918462037BD4680BD00BF95
:100CD000AC00002080B586B002AF78603960184B58
:100CE0001B68DB68DB68FB60FB680433184601F0B7
:100CF0001FFBFB68DB69012B1BD1FB689A697B68D2
:100D00001344F86819463A687B6800F0A7F8034670
:100D1000012B0ED100230093F86800217A6800238C
:100D2000FFF792FFB860BB68002B02D101F0EAFC2C
:100D3000FEE7FB685B6AF86898471037BD4680BDE0
:100D4000A400002080B584B000AF786007F10803EC
:100D5000184600F03FF8F860BB68F868194600F0E4
:100D600003F800F0BDF8F1E780B584B000AF78601B
:100D7000396000F0FDFA07F10803184600F04EF85C
:100D8000F860BB68002B1ED13B68002B0AD17A6843
:100D9000FB689A4206D800F0F9FA7868F968FFF71C
:100DA00099FF12E00A4B1A687968FB68CB1A104663
:100DB000194602F02DF900F0E9FA0346002B04D1A0
:100DC00001F058FC01E000F0E1FA1037BD4680BDAB
:100DD000AC00002080B485B000AF78600E4B1B687B
:100DE0001B68002B14BF00230123DBB21A467B686B
:100DF0001A607B681B68002B05D1074B1B68DB68FA
:100E00001B68FB6001E00023FB60FB681846143799
:100E1000BD465DF8047B7047A400002080B584B017
:100E200000AF786000F036FBF8600B4B1B68FA6887
:100E30009A4205D200F0DCF87B6801221A6002E0D9
:100E40007B6800221A60044BFA681A60FB68184637
:100E50001037BD4680BD00BFB000002080B586B011
:100E600000AFF860B9607A603B6000237B61FB688B
:100E7000BA685A60FB68FA681A61BA687B689A4275
:100E800012D87A683B68D21AFB689B699A4202D3EF
:100E900001237B611BE0104B1A68FB68043310468A
:100EA000194601F00DFA12E07A683B689A4206D2C0
:100EB000BA683B689A4202D301237B6107E0074B83
:100EC0001A68FB6804331046194601F0F9F97B698A
:100ED00018461837BD4680BDA8000020A400002099
:100EE00080B58AB002AF70E0BB68002B6DDB3B6958
:100EF000FB61FB695B69002B04D0FB690433184676
:100F000001F016FA3B1D1846FFF788FFB861BB6871
:100F1000092B59D801A252F823F000BF450F000851
:100F2000450F0008450F0008C90F0008970F00087B
:100F3000C10F0008450F0008450F0008C90F000841
:100F4000970F0008FA68FB699B691A44FB68F86907
:100F50001146BA69FFF782FF0346012B1AD1FB69DC
:100F60005B6AF8699847FB69DB69012B12D1FA6863
:100F7000FB699B69134400220092F86900211A461C
:100F80000023FFF761FE78617B69002B02D101F03D
:100F9000B9FBFEE719E0FA68FB699A61FB699B6996
:100FA000002B02D101F0AEFBFEE7FB699A69BB6939
:100FB0001344F8691946BA69BB69FFF74FFF04E0AB
:100FC000F86902F0E3F800E000BF084B1A6807F187
:100FD0000803104619460022002301F005FE0346CF
:100FE000002B81D12037BD4680BD00BFAC00002062
:100FF00080B588B002AF3DE0274B1B68DB681B68FB
:101000007B61254B1B68DB68DB683B613B69043314
:10101000184601F08DF93B695B6A386998473B696E
:10102000DB69012B26D13B699A697B691344FB601C
:10103000FA687B699A420ED93B69FA685A603B6943
:101040003A691A61144B1A683B6904331046194611
:1010500001F036F90EE000230093386900217A6927
:101060000023FFF7F1FDB860BB68002B02D101F04F
:1010700049FBFEE7084B1B681B68002BBCD1064BE5
:101080001B687B60054B1A68034B1A60034B7A6838
:101090001A601837BD4680BDA4000020A8000020BB
:1010A00080B500AF01F0F6FA154B1B68002B24D178
:1010B000144801F0B5F8144801F0B2F8134B114A86
:1010C0001A60134B104A1A600A200C21002201F00A
:1010D0000FFC02460A4B1A60094B1B68002B02D119
:1010E00001F010FBFEE7064B1B68002B05D0044BFC
:1010F0001B681846074901F063FF01F0EBFA80BD59
:10110000AC0000207C00002090000020A400002003
:10111000A80000203035000880B58AB002AFF86022
:10112000B9603B601346FB80FB68002B02D101F0E5
:10113000E9FAFEE7BB6A042B02D901F0E3FAFEE705
:10114000FB881846396B00F03DFDB861BB69002B88
:1011500071D0BB691A6BFB8803F18043013B9B0094
:1011600013447B617B6923F007037B617B6903F098
:101170000703002B02D001F0C5FAFEE7FB880093BD
:10118000B869B968BA6A7B6B00F024FC7869F968C1
:101190003A6801F0A5F90246BB691A60FB6A002BA8
:1011A00002D0FB6ABA691A6001F074FA2D4B1B6811
:1011B0005A1C2C4B1A602C4B1B68002B09D12A4B54
:1011C000BA691A60274B1B68012B0FD100F04CFC49
:1011D0000CE0264B1B68002B08D1234B1B68DA6AF6
:1011E000BB6A9A4202D8204BBA691A60204B1B682E
:1011F0005A1C1F4B1A601E4B1A68BB691A64BB69E4
:10120000DB6A01229A401B4B1B681A43194B1A6078
:10121000BB69DA6A13469B0013449B00164A1A44C2
:10122000BB6904331046194601F026F80123FB611F
:1012300001F050FA02E04FF0FF33FB61FB69012B34
:101240000BD10A4B1B68002B07D0074B1B68DA6ACF
:10125000BB6A9A4201D201F00DFAFB6918462037A9
:10126000BD4680BD8C010020B40000209801002004
:10127000A801002094010020B800002080B584B0AF
:1012800000AF78600023FB607B68002B28D0184BF0
:101290001B68002B02D001F035FAFEE700F068F879
:1012A000144B1A687B681344BB60134B1B680433F0
:1012B000184601F03DF80346002B0BD10E4B1B687E
:1012C000DB6A012202FA03F3DA430C4B1B681A4073
:1012D0000A4B1A60B86800F03FFC00F057F8F8605D
:1012E000FB68002B01D101F0C5F91037BD4680BD68
:1012F000AC01002090010020B400002094010020E7
:1013000080B586B004AF002300930023019300232F
:101310000293002303931248124982220023FFF70D
:10132000FBFE78607B68012B02D1FFF761FC7860DF
:101330007B68012B0AD101F0E5F90B4B01221A6001
:101340000A4B00221A6001F02DF905E07B68002BA2
:1013500002D101F0D7F9FEE70837BD4680BD00BFD6
:10136000B1190008383500089801002090010020CC
:1013700080B400AF044B1B685A1C034B1A60BD4677
:101380005DF8047B704700BFAC01002080B582B0DF
:1013900000AF00237B60374B1B68002B02D101F0AC
:1013A000B1F9FEE701F076F9324B1B685A1E314B5A
:1013B0001A60304B1B68002B55D12F4B1B68002B3C
:1013C00051D02EE02D4BDB68DB683B603B68183367
:1013D000184600F0ADFF3B680433184600F0A8FF44
:1013E0003B68DB6A01229A40254B1B681A43244B59
:1013F0001A603B68DA6A13469B0013449B00214A3B
:101400001A443B6804331046194600F035FF3B6828
:10141000DA6A1D4B1B68DB6A9A4202D31B4B01221E
:101420001A60164B1B68002BCCD1194B1B68002B84
:1014300011D00CE000F040F80346002B02D0134B13
:1014400001221A60124B1B685A1E114B1A60104B76
:101450001B68002BEED10D4B1B68012B03D1012320
:101460007B6001F007F901F035F97B681846083711
:10147000BD4680BDAC0100208C0100204C01002045
:1014800094010020B8000020B4000020A00100203A
:101490009C01002080B582B000AF01F0FBF8054B45
:1014A0001B687B6001F016F97B6818460837BD465B
:1014B00080BD00BF9001002080B586B000AF002342
:1014C0007B614D4B1B68002B40F086804B4B1B68AB
:1014D0005A1C4A4B1A60494B1B683B613B69002B05
:1014E00018D1474B1B681B68002B02D001F00AF98A
:1014F000FEE7434B1B68FB60424B1A68404B1A6087
:10150000404BFA681A60404B1B685A1C3E4B1A60ED
:1015100000F09AFB3D4B1B683A699A424DD3384B19
:101520001B681B68002B01D1012300E00023002B66
:1015300004D0364B4FF0FF321A603EE0304B1B6850
:10154000DB68DB68BB60BB685B687B603A697B68B3
:101550009A4203D22D4B7A681A602EE0BB6804339E
:10156000184600F0E5FEBB689B6A002B04D0BB6800
:101570001833184600F0DCFEBB68DB6A01229A4093
:10158000234B1B681A43224B1A60BB68DA6A134666
:101590009B0013449B001F4A1A44BB680433104647
:1015A000194600F069FEBB68DA6A1B4B1B68DB6AF0
:1015B0009A4201D301237B61B1E7174B1B68DA6ABA
:1015C000144913469B0013449B000B441B68012BDA
:1015D00007D901237B6104E0104B1B685A1C0F4B99
:1015E0001A600F4B1B68002B01D001237B617B69C4
:1015F00018461837BD4680BDAC0100209001002080
:101600004401002048010020A401002030000020F7
:1016100094010020B8000020B40000209C010020AC
:10162000A001002080B584B000AF344B1B68002BB4
:1016300003D0334B01221A605CE0314B00221A6068
:10164000304B1B681A682F4B1B681B6B9A4208D8DB
:101650002C4B1A682B4B1B68343310461946FFF786
:1016600077FA284B1B681B6B18462749142201F098
:10167000EDFD0346002B08D0224B1A68214B1B6856
:10168000343310461946FFF763FA204B1B687B6022
:101690007B68B3FA83F3FB70FB78C3F11F03FB6035
:1016A0001B49FA6813469B0013449B000B441B68BC
:1016B000002B02D101F026F8FEE7FA6813469B00E2
:1016C00013449B00124A1344BB60BB685B685A68B2
:1016D000BB685A60BB685A68BB6808339A4204D139
:1016E000BB685B685A68BB685A60BB685B68DA684D
:1016F000044B1A601037BD4680BD00BFAC0100200E
:10170000A0010020B4000020403500089401002012
:10171000B800002080B584B000AF786039607B6885
:10172000002B02D100F0EEFFFEE7194B1B681833C7
:101730007868194600F0C4FD154B1B680433184641
:1017400000F0F6FD0346002B0BD1114B1B68DB6A42
:10175000012202FA03F3DA430E4B1B681A400D4BC9
:101760001A603B68B3F1FF3F07D1094B1B68043394
:101770000948194600F080FD07E0084B1A683B68ED
:101780001344FB60F86800F0E7F91037BD4680BDF0
:10179000B400002094010020780100209001002076
:1017A00080B584B000AF786039607B68002B02D1CF
:1017B00000F0A8FFFEE7134B1B6818337868194642
:1017C00000F05AFD0F4B1B680433184600F0B0FDC3
:1017D0000346002B0BD10B4B1B68DB6A012202FA7C
:1017E00003F3DA43084B1B681A40074B1A60074B98
:1017F0001A683B681344FB60F86800F0ADF91037D5
:10180000BD4680BDB400002094010020900100205E
:1018100080B584B000AF78607B68DB68DB68BB6054
:10182000BB68002B02D100F06DFFFEE7BB681833E8
:10183000184600F07DFD1D4B1B68002B1CD1BB68BA
:101840000433184600F074FDBB68DB6A01229A403D
:10185000174B1B681A43164B1A60BB68DA6A1346AB
:101860009B0013449B00134A1A44BB680433104680
:10187000194600F001FD05E0BB6818330E48194613
:1018800000F0FAFCBB68DA6A0C4B1B68DB6A9A4210
:1018900005D90123FB600A4B01221A6001E00023F5
:1018A000FB60FB6818461037BD4680BDAC010020C8
:1018B00094010020B80000204C010020B40000205A
:1018C000A001002080B582B000AF78607B68002B5B
:1018D00002D100F017FFFEE7054B1A687B681A601B
:1018E000044B1A687B685A600837BD4680BD00BF4C
:1018F000A40100209001002080B584B000AF786082
:1019000039607B68002B02D100F0FCFEFEE73B68EB
:10191000002B02D100F0F6FEFEE700F0BBFE1C4BF0
:101920001B68BB603B681B68B3F1FF3F02D100231B
:10193000FB6026E07B681A68164B1B689A4207D04A
:101940007B685A68BB689A4202D80123FB6018E0A2
:101950007B685B68BA68D21A3B681B689A420ED2F1
:101960003B681A687B685968BB68CB1A1A443B68A5
:101970001A607868FFF7A6FF0023FB6001E00123EF
:10198000FB6000F0A7FEFB6818461037BD4680BD1F
:1019900090010020A401002080B400AF034B01227D
:1019A0001A60BD465DF8047B704700BFA0010020AF
:1019B00080B582B000AF786000F094F8044B1B68EB
:1019C000012B01D900F056FEFFF7CAF8F4E700BF7B
:1019D000B800002080B586B000AFF860B9607A60CA
:1019E0003B6000237B6112E0BA687B6913441A787C
:1019F000F9687B690B4430331A71BA687B69134408
:101A00001B78002B00D105E07B6901337B617B698A
:101A1000092BE9D9FB68002283F83D207B68042B61
:101A200001D904237B60FB687A68DA62FB687A6814
:101A30009A64FB680022DA64FB680433184600F0FD
:101A40000FFCFB681833184600F00AFCFB68FA68C4
:101A50001A617B68C3F10502FB689A61FB68FA684A
:101A60005A621837BD4680BD80B582B000AF0023F2
:101A70007B600CE07A6813469B0013449B00114A7C
:101A80001344184600F0CCFB7B6801337B607B6815
:101A9000042BEFD90C4800F0C3FB0C4800F0C0FB4E
:101AA0000B4800F0BDFB0B4800F0BAFB0A4800F001
:101AB000B7FB0A4B044A1A60094B044A1A600837FC
:101AC000BD4680BDB80000201C0100203001002070
:101AD0004C0100206001002078010020440100201A
:101AE0004801002080B582B000AF28E0FFF740FC3D
:101AF000164B1B68002B14BF00230123DBB27B6055
:101B0000FFF744FC7B68002B19D100F0C3FD0F4B9D
:101B1000DB68DB683B603B680433184600F008FC78
:101B20000B4B1B685A1E0A4B1A600A4B1B685A1E45
:101B3000084B1A6000F0CEFD386800F075F8054BD0
:101B40001B68002BD2D10837BD4680BD6001002044
:101B50008C0100207401002080B582B000AF786055
:101B6000134B1B687A685A60124B1B687A689A425A
:101B700009D2114B1A680E4B1B68043310461946E4
:101B800000F09EFB10E00D4B1A68094B1B680433F4
:101B90001046194600F094FB094B1B687A689A427C
:101BA00002D2074B7A681A600837BD4680BD00BF75
:101BB000B4000020900100204801002044010020D2
:101BC0003000002080B584B000AF03463960FB8050
:101BD000502001F049FAF860FB68002B1FD03B68E9
:101BE000002B06D1FB889B00184601F03DFA034606
:101BF00000E03B68FA681363FB681B6B002B05D1A0
:101C0000F86801F0C3FA0023FB6008E0FB681A6B78
:101C1000FB889B001046A5211A4601F0E5FBFB68F6
:101C200018461037BD4680BD80B582B000AF7860E1
:101C30007B681B6B184601F0A9FA786801F0A6FAD8
:101C40000837BD4680BD00BF80B483B000AF0E4BE7
:101C50001B681B68002B01D1012300E00023002B2F
:101C600004D00A4B4FF0FF321A6008E0064B1B68A5
:101C7000DB68DB687B607B685A68044B1A600C3752
:101C8000BD465DF8047B7047440100203000002011
:101C900080B483B000AF0B4B1B68002B02D1012333
:101CA0007B6008E0084B1B68002B02D102237B609D
:101CB00001E000237B607B6818460C37BD465DF869
:101CC000047B704798010020AC01002080B584B0EF
:101CD00000AF78607B68FB607B68002B62D0FB689C
:101CE000DA6A324B1B68DB6A9A425BD2FB689B69FB
:101CF000002B06DB2D4B1B68DB6AC3F10502FB687A
:101D00009A61FB685969FB68DA6A13469B001344C1
:101D10009B00274A1344994201D1012300E000238C
:101D2000002B3AD0FB680433184600F001FB034651
:101D3000002B15D1FB68DA6A1D4913469B0013443A
:101D40009B000B441B68002B0AD1FB68DB6A012255
:101D500002FA03F3DA43174B1B681A40154B1A605B
:101D6000124B1B68DA6AFB68DA62FB68DB6A0122E5
:101D70009A40104B1B681A430E4B1A60FB68DA6AD4
:101D800013469B0013449B00094A1A44FB68043322
:101D90001046194600F070FA04E0044B1B68DA6A3A
:101DA000FB68DA621037BD4680BD00BFB40000207A
:101DB000B80000209401002080B584B000AF7860A6
:101DC0007B68BB600023FB607B68002B56D0BB6840
:101DD000DB6C002B02D100F095FCFEE7BB68DB6CEE
:101DE0005A1EBB68DA64BB68DA6ABB689B6C9A42AD
:101DF00044D0BB68DB6C002B40D1BB680433184671
:101E000000F096FA0346002B15D1BB68DA6A1E492A
:101E100013469B0013449B000B441B68002B0AD104
:101E2000BB68DB6A012202FA03F3DA43174B1B6833
:101E30001A40164B1A60BB689A6CBB68DA62BB68C2
:101E4000DB6AC3F10502BB689A61BB68DB6A0122E9
:101E50009A400E4B1B681A430C4B1A60BB68DA6A37
:101E600013469B0013449B00074A1A44BB68043383
:101E70001046194600F000FA0123FB60FB68184683
:101E80001037BD4680BD00BFB8000020940100207F
:101E900080B400AF074B1B68002B04D0054B1B68B8
:101EA000DA6C0132DA64034B1B681846BD465DF8F4
:101EB000047B7047B400002080B483B000AF78602A
:101EC0004FF020437A6812687968486879688968B1
:101ED00008437968C96808437968096908437968DB
:101EE000496908437968896908437968C969084379
:101EF0007968096A08437968496A08437968896A90
:101F000008437968C96A08437968096B014343F853
:101F100022107B689B68082B0DD14FF020437A6814
:101F200012684FF020417868006851F8201041F0A5
:101F3000400143F822104FF020437A6812680132C2
:101F40007968496B08687968496B496809010843F1
:101F50007968496B8968090208437968496BC968DF
:101F6000090408437968496B0969090508437968D8
:101F7000496B4969090608437968496B89690143D6
:101F800043F822107B68DB6AB3F5804F20D1164BF3
:101F90007A6812687968896B08687968896B49681A
:101FA000090108437968896B8968090208437968DF
:101FB000896B0969090508437968896B49690906CC
:101FC00008437968896B8969014343F8221006E068
:101FD000054B7A6812686FF0704143F822100C3795
:101FE000BD465DF8047B7047040100A080B483B057
:101FF00000AF78600B46FB70FB78002B0CD04FF0E5
:1020000020434FF02042796852F8212042F001012C
:102010007A6843F822100BE04FF020424FF0204343
:10202000796853F82110054B0B40796842F821304C
:102030000C37BD465DF8047B704700BFFEFF0F0004
:1020400080B487B000AF7860396000237B610023E3
:102050003B610023FB6000237B6176E07B6901220A
:1020600002FA03F33B613B681A683B691340FB606B
:10207000FA683B699A4265D17B681A687B695B00A4
:10208000032101FA03F3DB431A407B681A607B6883
:102090001A683B681B7919467B695B0001FA03F3F8
:1020A0001A437B681A603B681B79012B03D03B689D
:1020B0001B79022B2ED17B689A687B695B00032118
:1020C00001FA03F3DB431A407B689A607B689A68E5
:1020D0003B685B7919467B695B0001FA03F31A439D
:1020E0007B689A607B685A687B699BB2012101FA20
:1020F00003F3DB431A407B685A607B685A683B688D
:102100009B7919467B699BB201FA03F39BB21A4390
:102110007B685A607B68DA687B699BB25B0003214D
:1021200001FA03F3DB431A407B68DA607B68DA6804
:102130003B68DB7919467B695B0001FA03F31A43BC
:102140007B68DA607B6901337B617B690F2B85D902
:102150001C37BD465DF8047B704700BF80B483B078
:1021600000AF78600B467B807B687A881A830C37D7
:10217000BD465DF8047B704780B483B000AF7860E3
:102180000B467B807B687A885A830C37BD465DF8A6
:10219000047B704780B485B000AF786013460A4670
:1021A0007A807B700023FB600023BB607A787B8899
:1021B00003F007039B0002FA03F3FB607B88DB0854
:1021C0009BB21A467B88DB089BB219467B680831B4
:1021D00053F821107B8803F007039B000F2000FABF
:1021E00003F3DB4319407B68083243F822107B88F5
:1021F000DB089BB21A467B68083253F82220FB6842
:102200001343BB607B88DB089BB21A467B680832AD
:10221000B96843F822101437BD465DF8047B704757
:1022200080B483B000AF78607B6803F108027B68FC
:102230005A607B684FF0FF329A607B6803F10802B6
:102240007B68DA607B6803F108027B681A617B684F
:1022500000221A600C37BD465DF8047B704700BF52
:1022600080B483B000AF78607B6800221A610C37BD
:10227000BD465DF8047B704780B485B000AF7860E0
:1022800039607B685B68FB603B68FA685A60FB6892
:102290009A683B689A60FB689B683A685A60FB687A
:1022A0003A689A603B687A681A617B681B685A1CB6
:1022B0007B681A601437BD465DF8047B704700BF29
:1022C00080B485B000AF786039603B681B68BB6044
:1022D000BB68B3F1FF3F03D17B681B69FB600CE077
:1022E0007B680833FB6002E0FB685B68FB60FB68AF
:1022F0005B681A68BB689A42F6D9FB685A683B6803
:102300005A603B685B683A689A603B68FA689A6012
:10231000FB683A685A603B687A681A617B681B6898
:102320005A1C7B681A601437BD465DF8047B704701
:1023300080B485B000AF78607B681B69FB607B6808
:102340005B687A6892689A607B689B687A68526872
:102350005A60FB685A687B689A4203D17B689A6826
:10236000FB685A607B6800221A61FB681B685A1E72
:10237000FB681A60FB681B6818461437BD465DF899
:10238000047B704780B500AF154B154AD2F8882002
:1023900042F47002C3F88820124B124A126842F0CD
:1023A00001021A600F4B00229A600E4A0D4B1B6807
:1023B00023F0847323F4803313600A4B0A4A5A6073
:1023C000084B084A126822F480221A60054B00224A
:1023D000DA6000F00BF8024B4FF000629A6080BDAB
:1023E00000ED00E0003802401030002480B483B0DB
:1023F00000AF00237B6000233B60354B344A1268FA
:1024000042F480321A60324B1B6803F400333B60A5
:102410007B6801337B603B68002B03D17B68B3F59D
:10242000A06FF0D12A4B1B6803F40033002B02D0BD
:1024300001233B6001E000233B603B68012B42D15C
:10244000234B234A126C42F080521A64214B214ADA
:10245000126842F480421A601D4B1D4A92689A60CD
:102460001B4B1B4A926842F400429A60184B184A70
:10247000926842F4A0529A60154B174A5A60144B66
:10248000134A126842F080721A6000BF104B1B683A
:1024900003F00073002BF9D0104B40F205621A6074
:1024A0000B4B0B4A926822F003029A60084B084AD1
:1024B000926842F002029A6000BF054B9B6803F0ED
:1024C0000C03082BF9D10C37BD465DF8047B70472F
:1024D000003802400070004008544007003C0240B1
:1024E00080B485B000AFF860B9607A60FB68043BE7
:1024F000FB60FB684FF080721A60FB68043BFB6076
:10250000BA68FB681A60FB68043BFB600C4AFB6816
:102510001A60FB68143BFB607A68FB681A60FB6812
:10252000043BFB60FB686FF002021A60FB68203B13
:10253000FB60FB6818461437BD465DF8047B7047A6
:102540004525000880B500AF054B1B68B3F1FF3F80
:1025500002D000F0D7F8FEE700F0D4F8FEE700BFA5
:1025600068000020064B19680868B0E8F04F80F357
:102570000988BFF36F8F4FF0000080F31188704718
:10258000B400002006480068006880F3088862B63E
:1025900061B6BFF34F8FBFF36F8F00DF00BF000046
:1025A00008ED00E080B584B000AF2C4BFB60FB6809
:1025B0001B78DBB2BB60FB68FF221A70FB681B78DC
:1025C000DBB2FB71FB79DBB203F05003DAB2244BD0
:1025D0001A70244B07221A6009E0224B1B685A1E0E
:1025E000204B1A60FB79DBB25B00DBB2FB71FB793D
:1025F000DBB2DBB25BB2002BEFDB1A4B1B681A02BB
:10260000184B1A60174B1B6803F4E062154B1A60F5
:10261000BB68DAB2FB681A70134B134A126842F4B3
:1026200070021A60104B104A126842F070421A6031
:1026300000F0B6F80D4B00221A6000F0CBF80C4BFE
:102640000B4A126842F040421A60FFF79BFFFFF707
:1026500079FF002318461037BD4680BD00E400E036
:10266000B0010020B401002020ED00E0680000204F
:1026700034EF00E080B400AF054B4FF080521A6099
:10268000BFF34F8FBFF36F8FBD465DF8047B70477C
:1026900004ED00E080B500AF00F034F80B4B1B6890
:1026A0005A1C0A4B1A60BFF34F8FBFF36F8F074B53
:1026B0001B68012B08D1064B1B6803F01F03002B7E
:1026C00002D000F01FF8FEE780BD00BF68000020C8
:1026D00004ED00E080B500AF094B1B68002B02D170
:1026E00000F010F8FEE7064B1B685A1E044B1A60F8
:1026F000034B1B68002B02D1002000F00DF880BDB9
:1027000068000020EFF311804FF0500181F3118831
:1027100070470023184600BF80F31188704700BF40
:10272000EFF30980BFF36F8F124B1A681EF0100F82
:1027300008BF20ED108A20E9F04F10604DF8043DED
:102740004FF0500080F31188FEF76CFF4FF000004F
:1027500080F3118808BC19680868B0E8F04F1EF0D3
:10276000100F08BFB0EC108A80F30988BFF36F8F99
:10277000704700BFB400002080B500AFFFF7C2FF74
:10278000FEF79AFE0346002B03D0044B4FF0805215
:102790001A600020FFF7C0FF80BD00BF04ED00E01D
:1027A00080B400AF074B084A1168084AA2FB010237
:1027B0009209013A1A60064B07221A60BD465DF87D
:1027C000047B704714E000E054000020D34D6210F9
:1027D00010E000E0DFF80C00016841F470010160D6
:1027E0007047000088ED00E080B582B000AFEFF3E5
:1027F00005837B607B680F2B0CD90D4A7B681344E3
:102800001B78FB700B4B1B78FA789A4202D2FFF7C9
:1028100079FFFEE7084B1B6803F4E062074B1B6877
:102820009A4202D9FFF76EFFFEE70837BD4680BD2A
:10283000F0E300E0B00100200CED00E0B401002066
:1028400080B584B000AF786039607B68FB60FB685E
:10285000002B02D1FFF756FFFEE7FFF71BFFFB68D7
:102860001A68FB68DB6BF968096C01FB03F31A4417
:10287000FB685A60FB6800229A63FB681A68FB6871
:102880009A60FB681A68FB68DB6B013BF968096CAE
:1028900001FB03F31A44FB68DA60FB684FF0FF3278
:1028A0005A64FB684FF0FF329A643B68002B0ED1EC
:1028B000FB681B69002B14D0FB6810331846FEF729
:1028C000A7FF0346012B0CD1FFF7D4FE09E0FB68FC
:1028D00010331846FFF7A4FCFB6824331846FFF7B3
:1028E0009FFCFFF7F7FE012318461037BD4680BD59
:1028F00080B588B000AFF860B9601346FB71002363
:10290000FB61FB68002B2AD0542000F0ADFBB861BE
:10291000BB69002B23D0FB68BA6802FB03F30133C9
:102920007B61786900F0A0FB0246BB691A60BB6955
:102930001B68002B10D0BB69FA68DA63BB69BA6800
:102940001A64B8690121FFF77BFFBB69FA7983F844
:102950005020BB69FB6102E0B86900F017FCFB691D
:10296000002B02D1FFF7CEFEFEE7FB6918462037A9
:10297000BD4680BD80B58AB000AFF860B9607A60AE
:102980003B6000237B62FB683B623B6A002B02D109
:10299000FFF7B8FEFEE7BB68002B03D13B6A1B6C58
:1029A000002B01D1012300E00023002B02D1FFF70F
:1029B000A9FEFEE73B68022B03D13B6ADB6B012BD0
:1029C00001D1012300E00023002B02D1FFF79AFE82
:1029D000FEE7FFF75DF90346002B02D17B68002B71
:1029E00001D1012300E00023002B02D1FFF78AFE72
:1029F000FEE7FFF74FFE3B6A9A6B3B6ADB6B9A423E
:102A000002D33B68022B1DD1386AB9683A6800F0DE
:102A1000C9F9F8613B6A5B6A002B0AD03B6A243330
:102A20001846FEF7F5FE0346012B07D1FFF722FEFD
:102A300004E0FB69002B01D0FFF71CFEFFF74AFE04
:102A4000012359E07B68002B03D1FFF743FE0023ED
:102A500052E07B6A002B06D107F114031846FEF7FB
:102A600031FF01237B62FFF735FEFEF781FCFFF7A4
:102A700011FE3B6A5B6CB3F1FF3F02D13B6A00225F
:102A80005A643B6A9B6CB3F1FF3F02D13B6A002260
:102A90009A64FFF71FFE07F114023B1D104619460A
:102AA000FEF72AFF0346002B1ED1386A00F070FAA9
:102AB0000346002B12D03B6A03F110027B681046DC
:102AC0001946FEF727FE386A00F000FAFEF75EFCB2
:102AD0000346002B0FD1FFF7CDFD0CE0386A00F064
:102AE000F5F9FEF753FC84E7386A00F0EFF9FEF7DA
:102AF0004DFC002300E07CE718462837BD4680BD2A
:102B000080B588B000AFF860B9607A603B60FB6860
:102B1000BB61BB69002B02D1FFF7F4FDFEE7BB6888
:102B2000002B03D1BB691B6C002B01D1012300E0FA
:102B30000023002B02D1FFF7E5FDFEE73B68022BE7
:102B400003D1BB69DB6B012B01D1012300E0002322
:102B5000002B02D1FFF7D6FDFEE7FFF745FEFFF79A
:102B6000D1FD7861BB699A6BBB69DB6B9A4202D37A
:102B70003B68022B2DD1B869B9683A6800F012F9A8
:102B80000346002B05D07B68002B02D07B68012216
:102B90001A60BB699B6CB3F1FF3F12D1BB695B6AE2
:102BA000002B13D0BB6924331846FEF731FE0346D1
:102BB000002B0BD07B68002B08D07B6801221A60A9
:102BC00004E0BB699B6C5A1CBB699A640123FB61DE
:102BD00001E00023FB617869FFF79EFDFB69184661
:102BE0002037BD4680BD00BF80B58AB000AFF86019
:102BF000B9607A603B6000237B62FB683B623B6AA2
:102C0000002B02D1FFF77EFDFEE7BB68002B03D14E
:102C10003B6A1B6C002B01D1012300E00023002B39
:102C200002D1FFF76FFDFEE7FFF732F80346002BF6
:102C300002D17B68002B01D1012300E00023002B8F
:102C400002D1FFF75FFDFEE7FFF724FD3B6A9B6BB8
:102C5000002B3BD03B6ADB68FB61386AB96800F047
:102C60000FF93B68002B1CD13B6A9B6B5A1E3B6AD9
:102C70009A633B6A1B68002B04D1FFF709F90246EF
:102C80003B6A5A603B6A1B69002B1BD03B6A1033BE
:102C90001846FEF7BDFD0346012B13D1FFF7EAFCF2
:102CA00010E03B6AFA69DA603B6A5B6A002B09D084
:102CB0003B6A24331846FEF7ABFD0346002B01D0D8
:102CC000FFF7D8FCFFF706FD012366E07B68002BC9
:102CD00003D1FFF7FFFC00235FE07B6A002B06D1E6
:102CE00007F114031846FEF7EDFD01237B62FFF7A1
:102CF000F1FCFEF73DFBFFF7CDFC3B6A5B6CB3F1EB
:102D0000FF3F02D13B6A00225A643B6A9B6CB3F1DD
:102D1000FF3F02D13B6A00229A64FFF7DBFC07F118
:102D200014023B1D10461946FEF7E6FD0346002B34
:102D30002BD1386A00F016F90346002B1FD03B6AEE
:102D40001B68002B08D1FFF7A5FC3B6A5B6818469F
:102D5000FEF7BCFFFFF7BEFC3B6A03F124027B6871
:102D600010461946FEF7D6FC386A00F0AFF8FEF7B9
:102D70000DFB0346002B0FD1FFF77CFC0CE0386AFB
:102D800000F0A4F8FEF702FB5EE7386A00F09EF858
:102D9000FEF7FCFA002300E056E718462837BD4648
:102DA00080BD00BF80B586B000AFF860B9607A60C2
:102DB00000237B61FB681B6C002B0DD1FB681B683B
:102DC000002B52D1FB685B681846FEF7F5FF78616F
:102DD000FB6800225A6048E07B68002B1AD1FB6830
:102DE0009A68FB681B6C1046B9681A4600F062FAD4
:102DF000FB689A68FB681B6C1A44FB689A60FB6866
:102E00009A68FB685B689A422FD3FB681A68FB6874
:102E10009A602AE0FB68DA68FB681B6C1046B968A8
:102E20001A4600F047FAFB68DA68FB681B6C5B42E5
:102E30001A44FB68DA60FB68DA68FB681B689A4230
:102E400007D2FB685A68FB681B6C5B421A44FB683C
:102E5000DA607B68022B08D1FB689B6B002B04D0E7
:102E6000FB689B6B5A1EFB689A63FB689B6B5A1C42
:102E7000FB689A637B6918461837BD4680BD00BF62
:102E800080B582B000AF786039607B681B6C002B26
:102E900019D07B68DA687B681B6C1A447B68DA603F
:102EA0007B68DA687B685B689A4203D37B681A6840
:102EB0007B68DA607B68DA687B681B6C386811466F
:102EC0001A4600F0F7F90837BD4680BD80B582B0DC
:102ED00000AF7860FFF7DEFB14E07B685B6A002BD5
:102EE0000AD07B6824331846FEF792FC0346002B79
:102EF00003D0FEF751FD00E008E07B689B6C5A1E92
:102F00007B689A647B689B6C002BE6DC7B684FF0E7
:102F1000FF329A64FFF7DEFBFFF7BCFB14E07B682F
:102F20001B69002B0FD07B6810331846FEF770FC2E
:102F30000346002B01D0FEF72FFD7B685B6C5A1E09
:102F40007B685A6400E003E07B685B6C002BE6DC86
:102F50007B684FF0FF325A64FFF7BCFB0837BD4671
:102F600080BD00BF80B584B000AF7860FFF792FBF2
:102F70007B689B6B002B02D10123FB6001E00023E7
:102F8000FB60FFF7A7FBFB6818461037BD4680BD06
:102F900080B584B000AF7860FFF77CFB7B689A6BEC
:102FA0007B68DB6B9A4202D10123FB6001E00023C6
:102FB000FB60FFF78FFBFB6818461037BD4680BDEE
:102FC00080B485B000AF786039600023FB6014E006
:102FD0000E4BFA6853F83230002B0BD10B4BFA68CA
:102FE000396843F83210094AFB68DB0013447A68F9
:102FF0005A6005E0FB680133FB60FB68072BE7D9EB
:103000001437BD465DF8047B704700BFCC2D01200E
:1030100080B584B000AF786039607B68FB60FFF7F3
:1030200039FBFB685B6CB3F1FF3F02D1FB68002208
:103030005A64FB689B6CB3F1FF3F02D1FB6800222E
:103040009A64FFF747FBFB689B6B002B05D1FB687D
:10305000243318463968FEF7A3FBF868FFF736FFFC
:103060001037BD4680BD00BF80B588B000AF786026
:1030700000237B61FEF77CF93F4B1B68002B04D1DA
:1030800000F0BCF83C4B01221A607B68002B0DD08D
:1030900008237A6813447B607B6803F00703002BE6
:1030A00004D07B6823F0070308337B607B68002B28
:1030B00056D07A68314B9A4252D8314BBB61304B73
:1030C0001B68FB6104E0FB69BB61FB691B68FB617A
:1030D000FB695A687B689A4203D2FB691B68002B24
:1030E000F1D1FA69274B9A423AD0BB691A68082392
:1030F00013447B61FB691A68BB691A60FB695A68F3
:103100007B68D21A08235B009A4222D9FA697B684D
:103110001344FB60FB695A687B68D21AFB685A60EB
:10312000FB697A685A60FB685B68BB60144B3B6163
:1031300002E03B691B683B613B691B685A68BB68DE
:103140009A42F6D33B691A68FB681A603B69FA68D1
:103150001A600D4B1A68FB695B68D21A0A4B1A6039
:10316000FEF714F97B69002B01D1FDF7FFFC7B69A9
:1031700018462037BD4680BDC82D0120F72B010021
:10318000B82D0120C02D01206C00002080B586B034
:1031900000AF78607B683B617B68002B27D00823F9
:1031A0005B423A6913443B613B69FB60FEF7E0F820
:1031B000FB685B68BB600F4B7B6102E07B691B684F
:1031C0007B617B691B685A68BB689A42F6D37B694E
:1031D0001A68FB681A607B69FA681A60FB685A68AB
:1031E000054B1B681A44044B1A60FEF7CFF81837DA
:1031F000BD4680BDB82D01206C00002080B483B096
:1032000000AF0E4B23F007037B600D4B7A681A600A
:103210000B4B00225A600B4B0B4A5A60094B0022A1
:103220001A607B683B603B68074A5A603B68054A06
:103230001A600C37BD465DF8047B7047C001002062
:10324000B82D0120C02D0120F82B0100032A70B4F5
:1032500028D940EA01039B0713D005780C78A542D2
:1032600024D1013A002305E010F8015F11F8014F65
:10327000A5421BD1934203F10103F5D1002070BC9C
:1032800070470C46034625681E68AE422146184624
:1032900004F1040403F1040304D1043A032A184698
:1032A0002146F0D8002AD8D11046E8E7281B70BC88
:1032B000704700BF844641EA000313F003036DD159
:1032C000403A41D351F8043B40F8043B51F8043BE9
:1032D00040F8043B51F8043B40F8043B51F8043BF0
:1032E00040F8043B51F8043B40F8043B51F8043BE0
:1032F00040F8043B51F8043B40F8043B51F8043BD0
:1033000040F8043B51F8043B40F8043B51F8043BBF
:1033100040F8043B51F8043B40F8043B51F8043BAF
:1033200040F8043B51F8043B40F8043B51F8043B9F
:1033300040F8043B51F8043B40F8043B51F8043B8F
:1033400040F8043B403ABDD2303211D351F8043B2F
:1033500040F8043B51F8043B40F8043B51F8043B6F
:1033600040F8043B51F8043B40F8043B103AEDD2DE
:103370000C3205D351F8043B40F8043B043AF9D22F
:10338000043208D0D2071CBF11F8013B00F8013B02
:1033900001D30B8803806046704700BF082A13D30F
:1033A0008B078DD010F003038AD0C3F10403D21A27
:1033B000DB071CBF11F8013B00F8013B80D331F85B
:1033C000023B20F8023B7BE7043AD9D3013A11F8DB
:1033D000013B00F8013BF9D20B7803704B78437046
:1033E0008B78837060467047F0B4840743D0541ED6
:1033F000002A3ED0CDB2034603E0621E002C38D036
:10340000144603F8015B9A07F7D1032C2AD9CDB2F1
:1034100045EA05250F2C45EA054515D9A4F1100705
:103420003F0903F1100606EB07161A4615605560B2
:103430009560D5601032B242F8D104F00F04013724
:10344000032C03EB07130DD91E462246043A032A28
:1034500046F8045BFAD8221F22F003020432134418
:1034600004F003042CB1C9B21C4403F8011BA342AD
:10347000FBD1F0BC704714460346C6E7001000209D
:103480000040008008000000080000000800000064
:103490000800000001000000010000000100000021
:1034A00000000000000000000600000020000000F6
:1034B00000000400040000000400000004000000FC
:1034C00004000000400000048000000806000A001C
:1034D00007000B0008000700080007004C454420C7
:1034E000666C617368207461736B207374617274AD
:1034F00065642E00DC3400084672656552544F53F3
:1035000020496E697469616C697A6174696F6E2EA5
:10351000000000004C43445072696E7400000000CB
:103520004C45443300000000546D72205376630014
:10353000546D72510000000049444C4500000000E9
:10354000A5A5A5A5A5A5A5A5A5A5A5A5A5A5A5A52B
:10355000A5A5A5A5000000000000000000000000D7
:10356000000000000000000000000000000000005B
:10357000000000000000000000000000000000004B
:1035800000000000000080018001800180018001B6
:103590008001800180018001800180018001800123
:1035A0000000000080018001000000000000000019
:1035B0000000000000000000CC00CC00CC00CC00DB
:1035C000CC00CC0000000000000000000000000063
:1035D00000000000000000000000000000000000EB
:1035E00000000000000000000000000000000000DB
:1035F000600C600C600C30063006FE1FFE1F3006AB
:1036000038071803FE1FFE1F180318038C018C01D6
:103610008C01000000008000E003F80F9C0E8C1C61
:103620008C188C009800F801E007800E801C8C1824
:103630008C189C18B80CF00FE0038000800000008C
:10364000000000000000000000000E181B0C110C10
:1036500011061106110311039B018E01C038C06CC5
:1036600060446044304430441844186C0C38000006
:10367000000000000000E001F003380718061806FB
:103680003003F001F000F8009C310E33061E061CDA
:10369000061C063FFC73F021000000000000000043
:1036A00000000000000000000C000C000C000C00EA
:1036B0000C000C00000000000000000000000000F2
:1036C00000000000000000000000000000000000FA
:1036D000000000000000000200038001C000C000E4
:1036E00060006000300030003000300030003000FA
:1036F0003000300060006000C000C00080010003A6
:1037000000020000000020006000C0008001800175
:10371000000300030006000600060006000600067F
:10372000000600060003000380018001C000600065
:103730002000000000000000000000000000000069
:10374000C000C000D806F807E001300338070000C9
:103750000000000000000000000000000000000069
:103760000000000000000000000000000000000059
:1037700080018001800180018001FC3FFC3F8001CD
:103780008001800180018001000000000000000035
:103790000000000000000000000000000000000029
:1037A0000000000000000000000000000000000019
:1037B0000000000000008001800100010001800085
:1037C00000000000000000000000000000000000F9
:1037D000000000000000000000000000E007E0071B
:1037E00000000000000000000000000000000000D9
:1037F00000000000000000000000000000000000C9
:1038000000000000000000000000000000000000B8
:10381000000000000000C000C00000000000000028
:10382000000000000000000C000C0006000600066E
:103830000003000300038003800180018001C000B9
:10384000C000C00060006000000000000000000038
:10385000000000000000E003F007380E180C0C1800
:103860000C180C180C180C180C180C180C180C1838
:10387000180C380EF007E003000000000000000004
:1038800000000000000000018001C001F00198016B
:103890008801800180018001800180018001800118
:1038A0008001800180018001000000000000000014
:1038B000000000000000E003F80F180C0C180C18B2
:1038C00000180018000C000600038001C000600012
:1038D00030001800FC1FFC1F00000000000000006A
:1038E000000000000000E001F807180E0C0C0C0CA2
:1038F000000C0006C003C007000C001800180C18CC
:103900000C18180CF807E00300000000000000008D
:10391000000000000000000C000E000F000F800DE2
:10392000C00C600C600C300C180C0C0CFC3FFC3F05
:10393000000C000C000C000C000000000000000057
:10394000000000000000F80FF80F180018000C002D
:10395000EC03FC071C0E001C0018001800180C18C3
:103960001C0C180EF807E003000000000000000027
:10397000000000000000C007F00F381C18181800E5
:103980000C00CC03EC0F3C0E1C1C0C180C180C1873
:10399000181C380EF007E0030000000000000000D3
:1039A000000000000000FC1FFC1F000C00060006C9
:1039B000000380038001C001C000E00060006000DF
:1039C00070003000300030000000000000000000F7
:1039D000000000000000E003F007380E180C180C7F
:1039E000180C3806F007F007180C0C180C180C18F7
:1039F0000C18380CF80FE003000000000000000075
:103A0000000000000000E003F007380E1C0C0C184A
:103A10000C180C181C1C381EF81BE0190018000CA0
:103A2000000C1C0EF807F001000000000000000070
:103A30000000000000000000000000000000000086
:103A40008001800100000000000000000000000074
:103A50000000000080018001000000000000000064
:103A60000000000000000000000000000000000056
:103A70008001800100000000000000000000000044
:103A800000000000800180010001000180000000B2
:103A90000000000000000000000000000000000026
:103AA000000000000010001C800FE003F800180068
:103AB000F800E003800F001C001000000000000070
:103AC00000000000000000000000000000000000F6
:103AD00000000000F81F000000000000F81F0000B8
:103AE00000000000000000000000000000000000D6
:103AF00000000000000000000000000000000000C6
:103B00000000000008003800F001C007001F001886
:103B1000001FC007F001380008000000000000008E
:103B2000000000000000E003F80F180C0C180C183F
:103B30000018000C000600038001C000C000C00097
:103B400000000000C000C0000000000000000000F5
:103B50000000000000000000E00718180420C2293F
:103B6000224A114409440944094409221113E20C70
:103B7000024004201818E0070000000000000000C8
:103B800000000000000080038003C006C006C006DD
:103B9000600C600C301830183018F83FF83F1C707B
:103BA0000C600C6006C006C00000000000000000B1
:103BB000000000000000FC03FC0F0C0C0C180C189B
:103BC0000C180C0CFC07FC0F0C180C300C300C30D3
:103BD0000C300C18FC1FFC07000000000000000067
:103BE000000000000000C007F01F38381C300C70C7
:103BF00006600600060006000600060006000660D5
:103C00000C701C30F01FE0070000000000000000F6
:103C1000000000000000FE03FE0F060E0618061846
:103C200006300630063006300630063006300618FC
:103C30000618060EFE0FFE03000000000000000044
:103C4000000000000000FC3FFC3F0C000C000C00DA
:103C50000C000C00FC1FFC1F0C000C000C000C00E6
:103C60000C000C00FC3FFC3F0000000000000000C6
:103C7000000000000000F83FF83F1800180018008E
:103C800018001800F81FF81F180018001800180076
:103C900018001800180018000000000000000000C4
:103CA000000000000000E00FF83F3C780E6006E0E6
:103CB00007C00300030003FE03FE03C007C006C0E5
:103CC0000EC03CF0F83FE00F0000000000000000D4
:103CD0000000000000000C300C300C300C300C30B8
:103CE0000C300C30FC3FFC3F0C300C300C300C30F6
:103CF0000C300C300C300C300000000000000000D4
:103D0000000000000000800180018001800180012E
:103D1000800180018001800180018001800180019B
:103D2000800180018001800100000000000000008F
:103D30000000000000000006000600060006000665
:103D4000000600060006000600060006000618062B
:103D500018063807F003E001000000000000000032
:103D600000000000000006300618060C06060603D8
:103D70008601C60066007600DE008E010603060698
:103D8000060C061806300660000000000000000067
:103D900000000000000018001800180018001800AB
:103DA0001800180018001800180018001800180053
:103DB00018001800F81FF81F0000000000000000A5
:103DC0000000000000000EE01EF01EF01EF036D8CD
:103DD00036D836D836D866CC66CC66CCC6C6C6C60B
:103DE000C6C6C6C686C386C3000000000000000029
:103DF0000000000000000C301C303C303C306C30C7
:103E00006C30CC30CC308C310C330C330C360C365F
:103E10000C3C0C3C0C380C30000000000000000092
:103E2000000000000000E007F81F1C380E7006605C
:103E300003C003C003C003C003C003C003C00660C7
:103E40000E701C38F81FE0070000000000000000A2
:103E5000000000000000FC0FFC1F0C380C300C3080
:103E60000C300C300C18FC1FFC070C000C000C0074
:103E70000C000C000C000C00000000000000000012
:103E8000000000000000E007F81F1C380E700660FC
:103E900003E003C003C003C003C003C007E0066320
:103EA0000E3F1C3CF83FE0F700C00000000000009F
:103EB000000000000000FE0FFE1F0638063006302E
:103EC00006300638FE1FFE0706030606060C061817
:103ED00006180630063006600000000000000000F2
:103EE000000000000000E003F80F1C0C0C180C1878
:103EF0000C001C00F803E00F001E003806300630EE
:103F00000E301C1CF80FE00700000000000000004D
:103F1000000000000000FE7FFE7F80018001800124
:103F20008001800180018001800180018001800189
:103F3000800180018001800100000000000000007D
:103F40000000000000000C300C300C300C300C3045
:103F50000C300C300C300C300C300C300C300C3081
:103F60000C301818F81FE0070000000000000000E7
:103F700000000000000003600630063006300C1818
:103F80000C180C18180C180C380E30063006700778
:103F900060036003C001C0010000000000000000D9
:103FA0000000000000000360C361C361C3616633A9
:103FB000663366336633663366336C1B6C1B6C1B6F
:103FC0002C1A3C1E380E380E0000000000000000C5
:103FD0000000000000000FE00C7018303018700C6A
:103FE000600EC00780038003C003E006700C301C25
:103FF00018180C300E6007E0000000000000000000
:1040000000000000000003C006600C301C383818A7
:10401000300C6006E007C003800180018001800150
:10402000800180018001800100000000000000008C
:10403000000000000000FC7FFC7F006000300018E2
:10404000000C000600038001C00060003000180072
:104050000C000600FE7FFE7F000000000000000054
:10406000000000000000E003E0036000600060006A
:104070006000600060006000600060006000600040
:104080006000600060006000600060006000E003AD
:10409000E0030000000030003000600060006000BD
:1040A000C000C000C000C001800180018001000389
:1040B00000030003000600060000000000000000EE
:1040C000000000000000E003E00300030003000321
:1040D00000030003000300030003000300030003C8
:1040E0000003000300030003000300030003E003D8
:1040F000E003000000000000C001C0016003600395
:10410000600330063006180C180C00000000000098
:10411000000000000000000000000000000000009F
:10412000000000000000000000000000000000008F
:10413000000000000000000000000000000000007F
:10414000000000000000FFFFFFFF00000000000073
:104150000000000000000C000C000C000C000C0023
:104160000C00000000000000000000000000000043
:10417000000000000000000000000000000000003F
:10418000000000000000000000000000000000002F
:10419000F003F8071C0C0C0C000FF00FF80C0C0CC3
:1041A0000C0C1C0FF80FF0180000000000000000BD
:1041B0000000000000001800180018001800180087
:1041C000D803F80F380C18181818181818181818D9
:1041D0001818380CF80FD803000000000000000089
:1041E00000000000000000000000000000000000CF
:1041F000C003F007300E180C180018001800180043
:10420000180C300EF007C003000000000000000092
:104210000000000000000018001800180018001826
:10422000C01BF01F301C1818181818181818181868
:104230001818301CF01FC01B000000000000000018
:10424000000000000000000000000000000000006E
:10425000C003F00F300C1818F81FF81F18001800D2
:104260003818301CF00FC0070000000000000000EC
:10427000000000000000800FC00FC000C000C000A0
:10428000F007F007C000C000C000C000C000C000C0
:10429000C000C000C000C00000000000000000001E
:1042A000000000000000000000000000000000000E
:1042B000E00DF80F180E0C0C0C0C0C0C0C0C0C0C6C
:1042C0000C0C180EF80FE00D000C0C0C1C06F80777
:1042D000F001000000001800180018001800180075
:1042E000D807F80F381C18181818181818181818A4
:1042F00018181818181818180000000000000000FE
:10430000000000000000C000C0000000000000002D
:10431000C000C000C000C000C000C000C000C0009D
:10432000C000C000C000C00000000000000000008D
:10433000000000000000C000C000000000000000FD
:10434000C000C000C000C000C000C000C000C0006D
:10435000C000C000C000C000C000C000C000F80025
:104360007800000000000C000C000C000C000C0099
:104370000C0C0C060C038C01CC006C00FC009C01A6
:104380008C030C030C060C0C000000000000000065
:10439000000000000000C000C000C000C000C0005D
:1043A000C000C000C000C000C000C000C000C0000D
:1043B000C000C000C000C0000000000000000000FD
:1043C00000000000000000000000000000000000ED
:1043D0007C3CFF7EC7E383C183C183C183C183C1AA
:1043E00083C183C183C183C10000000000000000BD
:1043F00000000000000000000000000000000000BD
:104400009807F80F381C18181818181818181818C2
:1044100018181818181818180000000000000000DC
:10442000000000000000000000000000000000008C
:10443000C003F00F300C181818181818181818188E
:104440001818300CF00FC00300000000000000003E
:10445000000000000000000000000000000000005C
:10446000D803F80F380C1818181818181818181836
:104470001818380CF80FD803180018001800180086
:104480001800000000000000000000000000000014
:10449000C01BF01F301C18181818181818181818F6
:1044A0001818301CF01FC01B001800180018001846
:1044B00000180000000000000000000000000000E4
:1044C000B007F003700030003000300030003000E2
:1044D000300030003000300000000000000000001C
:1044E00000000000000000000000000000000000CC
:1044F000E003F003380E180C3800F003C007000C7E
:10450000180C380EF007E003000000000000000067
:1045100000000000000000008000C000C000C000DB
:10452000F007F007C000C000C000C000C000C0001D
:10453000C000C000C00780070000000000000000AD
:10454000000000000000000000000000000000006B
:1045500018181818181818181818181818181818DB
:104560001818381CF01FE0190000000000000000BF
:10457000000000000000000000000000000000003B
:104580000C18180C180C180C300630063006600396
:1045900060036003C001C0010000000000000000D3
:1045A000000000000000000000000000000000000B
:1045B000C141C141C36163636363636336363636A9
:1045C00036361C1C1C1C1C1C0000000000000000D7
:1045D00000000000000000000000000000000000DB
:1045E0001C38381C300C60066003600360036003F5
:1045F0006006300C381C1C38000000000000000071
:1046000000000000000000000000000000000000AA
:104610001830301830187018600C600CE00CC006B0
:10462000C00680038003800380018001C001F00088
:10463000700000000000000000000000000000000A
:10464000FC1FFC1F000C000600038001C00060007E
:1046500030001800FC1FFC1F0000000000000000DC
:1046600000000000000000038001C000C000C00086
:10467000C000C000C000600060003000600040006A
:10468000C000C000C000C000C000C0008001000326
:104690000000000000008001800180018001800195
:1046A0008001800180018001800180018001800102
:1046B00080018001800180018001800180018001F2
:1046C0008001000000006000C000C0018001800186
:1046D0008001800180010003000300060003000147
:1046E000800180018001800180018001C0006000A4
:1046F00000000000000000000000000000000000BA
:1047000000000000F010F81F080F0000000000007B
:104710000000000000000000000000000000000099
:104720000000000000000000000000000000000089
:104730000000000000000000000000000000002059
:104740000020002000200020002000200000002089
:104750000000000000000050005000500000000069
:104760000000000000000000000000000000000940
:1047700000090012007F0012007F001200240024B4
:1047800000000000001000380054005000500038B5
:104790000014005400540038001000000000803065
:1047A00000490049004AC032200520092009C010F4
:1047B000000000000000000C00120012001400189D
:1047C000002500230023801D0000000000000040A1
:1047D0000040004000000000000000000000000059
:1047E0000000000000000008001000100020002061
:1047F00000200020002000200010001000000040D9
:104800000020002000100010001000100010001008
:104810000020002000000020007000200050000058
:104820000000000000000000000000000000000088
:10483000000000080008007F0008000800000000D9
:104840000000000000000000000000000000000068
:1048500000000000000000200020004000000000D8
:1048600000000000000000000070000000000000D8
:104870000000000000000000000000000000000038
:1048800000000000000000200000000000000010F8
:1048900000100010002000200020002000400040F8
:1048A0000000000000000010002800440044004404
:1048B0000044004400280010000000000000001028
:1048C0000030005000100010001000100010001008
:1048D0000000000000000030004800440004000810
:1048E000001000200040007C0000000000000030AC
:1048F0000048000400080010000800440048003090
:10490000000000000000000800180018002800281F
:104910000048007C00080008000000000000003C87
:1049200000200040007000480004004400480030AF
:104930000000000000000018002400400050006843
:104940000044004400280010000000000000007C2B
:1049500000040008001000100010002000200020BB
:104960000000000000000010002800440028001093
:104970000028004400280010000000000000001083
:10498000002800440044002C0014000400480030BB
:1049900000000000000000000000002000000000F7
:1049A00000000000000000200000000000000000E7
:1049B00000000020000000000000000000000020B7
:1049C000002000400000000000040008003000400B
:1049D000003000080004000000000000000000009B
:1049E0000000007C00000000007C000000000000CF
:1049F000000000000000000000400020001800043B
:104A000000180020004000000000000000000038F6
:104A100000640044000400080010001000000010B2
:104A2000000000000000800F4010A02EA051205177
:104A3000205120512053C04D20204010000000087C
:104A40000014001400140022003E00220041004126
:104A5000000000000000003C002200220022003C78
:104A6000002200220022003C000000000000000E96
:104A70000011002100200020002000210011000E64
:104A8000000000000000003C002200210021002165
:104A9000002100210022003C000000000000003E38
:104AA000002000200020003E002000200020003ECA
:104AB000000000000000003E002000200020003C1C
:104AC0000020002000200020000000000000000E58
:104AD0000011002100200027002100210011000EFC
:104AE0000000000000000021002100210021003F03
:104AF0000021002100210021000000000000002012
:104B000000200020002000200020002000200020A5
:104B1000000000000000000800080008000800086D
:104B2000000800480048003000000000000000229B
:104B30000024002800280038002800240024002237
:104B400000000000000000200020002000200020C5
:104B5000002000200020003E000000000000802017
:104B6000803180318031802A802A802A802A8024E6
:104B70000000000000000021003100310029002960
:104B80000025002300230021000000000000000C8D
:104B90000012002100210021002100210012000C40
:104BA000000000000000003C002200220022003C27
:104BB0000020002000200020000000000000000C69
:104BC0000012002100210021002100210016000D0B
:104BD000000100000000003E002100210021003EF5
:104BE0000024002200218020000000000000001CA2
:104BF000002200220020001C000200220022001CD3
:104C0000000000000000003E000800080008000846
:104C10000008000800080008000000000000002153
:104C20000021002100210021002100210012000CA0
:104C3000000000000000004100410022002200228C
:104C4000001400140014000800000000000040449C
:104C5000404A402A802A802A802A802A802A0011FD
:104C600000000000000000410022001400140008B1
:104C70000014001400220041000000000000004168
:104C800000220022001400080008000800080008A4
:104C9000000000000000007E000200040008001078
:104CA000001000200040007E0000000000000030E6
:104CB00000200020002000200020002000200020F4
:104CC00000200020000000400040002000200020C4
:104CD0000020002000100010000000000000006014
:104CE00000200020002000200020002000200020C4
:104CF00000200020000000100028002800280044A8
:104D000000000000000000000000000000000000A3
:104D10000000000000000000000000000000000093
:104D20000000007E004000200000000000000000A5
:104D30000000000000000000000000000000000073
:104D40000000003800440004003C00440044003CE3
:104D500000000000000000400040005800640044D3
:104D600000440044006400580000000000000000FF
:104D70000000003000480040004000400048003083
:104D8000000000000000000400040034004C004457
:104D900000440044004C003400000000000000000B
:104DA0000000003800440044007C0040004400380B
:104DB0000000000000000060004000E000400040F3
:104DC00000400040004000400000000000000000E3
:104DD00000000034004C004400440044004C003407
:104DE00000040044000000400040005800640044FB
:104DF0000044004400440044000000000000004063
:104E000000000040004000400040004000400040E2
:104E10000000000000000040000000400040004092
:104E200000400040004000400040004000000040C2
:104E3000004000480050006000500050004800480A
:104E40000000000000000040004000400040004022
:104E50000040004000400040000000000000000052
:104E600000000052006D0049004900490049004916
:104E70000000000000000000000000580064004432
:104E80000044004400440044000000000000000012
:104E9000000000380044004400440044004400384E
:104EA0000000000000000000000000580064004402
:104EB000004400440064005800400040000000002E
:104EC00000000034004C004400440044004C003416
:104ED00000040004000000000000005000600040DA
:104EE00000400040004000400000000000000000C2
:104EF000000000300048004000300008004800304A
:104F00000000000000000040004000E000400040C1
:104F10000040004000400060000000000000000071
:104F2000000000440044004400440044004C0034AD
:104F300000000000000000000000004400440028C1
:104F400000280028002800100000000000000000D9
:104F50000000004900490055005500550055002249
:104F600000000000000000000000004400280028AD
:104F7000001000280028004400000000000000008D
:104F80000000004400440028002800280010001001
:104F90000010001000000000000000780008001061
:104FA00000200020004000780000000000000010F9
:104FB00000200020002000200040002000200020D1
:104FC0000020002000000020002000200020002001
:104FD00000200020002000200020002000000040D1
:104FE00000200020002000200010002000200020D1
:104FF00000200020000000000000000000740058A5
:1050000000000000000000000000000000000000A0
:1050100000700050005000500050005000500070D0
:105020000000000000000000000000000000000080
:105030000000000000000000000000000000000070
:105040000000100010001000100010001000000000
:1050500010000000000000000000280028002800C8
:105060000000000000000000000000000000000040
:105070000000140014003E00140028007C002800EA
:10508000280000000000000010003800540050000C
:105090003800140014005400380010000000000014
:1050A00000004400A800A800500014001A002A00C4
:1050B000240000000000000000002000500050000C
:1050C0002000E80098009800600000000000000048
:1050D0000000800080008000000000000000000050
:1050E0000000000000000000000040008000800080
:1050F00080008000800080008000800000000000B0
:10510000000080004000400040004000400040009F
:10511000400040000000000000004000E0004000AF
:10512000A0000000000000000000000000000000DF
:1051300000000000000020002000F80020002000F7
:10514000000000000000000000000000000000005F
:1051500000000000000000004000400000000000CF
:10516000000000000000000000000000C00000007F
:10517000000000000000000000000000000000002F
:1051800000000000000000004000000000000000DF
:10519000000020002000200040004000800080002F
:1051A00080000000000000000000600090009000FF
:1051B000900090009000900060000000000000004F
:1051C000000020006000A00020002000200020003F
:1051D00020000000000000000000600090001000AF
:1051E0001000200040008000F000000000000000DF
:1051F000000060009000100060001000100090009F
:1052000060000000000000000000100030005000AE
:1052100050009000F8001000100000000000000096
:105220000000700040008000E000100010009000BE
:10523000600000000000000000006000900080009E
:10524000A000D0009000900060000000000000006E
:105250000000F0001000200020002000400040006E
:10526000400000000000000000006000900090007E
:1052700060009000900090006000000000000000BE
:105280000000600090009000B000500010009000FE
:10529000600000000000000000000000000040006E
:1052A00000000000000000004000000000000000BE
:1052B00000000000000040000000000000000000AE
:1052C000400040000000000000000000000010004E
:1052D000600080006000100000000000000000007E
:1052E0000000000000000000F0000000F0000000DE
:1052F000000000000000000000000000000080002E
:10530000600010006000800000000000000000004D
:1053100000006000900010002000400040000000ED
:10532000400000000000000000001C0022005B00A4
:10533000A500A500A500A5009E00410000000000FA
:105340000000200050005000500050007000880005
:1053500088000000000000000000F00088008800C5
:10536000F000880088008800F000000000000000C5
:105370000000380044008400800080008400440065
:1053800038000000000000000000E00090008800ED
:105390008800880088009000E00000000000000005
:1053A0000000F80080008000F8008000800080008D
:1053B000F8000000000000000000780040004000FD
:1053C000700040004000400040000000000000006D
:1053D000000038004400840080009C0084004400E9
:1053E00038000000000000000000880088008800ED
:1053F000F800880088008800880000000000000095
:10540000000080008000800080008000800080001C
:1054100080000000000000000000100010001000DC
:1054200010001000900090006000000000000000DC
:10543000000088009000A000E000A0009000900014
:105440008800000000000000000080008000800054
:105450008000800080008000F0000000000000005C
:1054600000008200C600C600AA00AA00AA00AA0086
:10547000920000000000000000008400C400A400AE
:10548000A400940094008C00840000000000000040
:10549000000030004800840084008400840048003C
:1054A00030000000000000000000F00088008800CC
:1054B0008800F000800080008000000000000000F4
:1054C00000003000480084008400840084005800FC
:1054D0003400040000000000000078004400440094
:1054E0007800500048004400420000000000000026
:1054F00000007000880080007000080088008800AC
:1055000070000000000000000000F80020002000F3
:1055100020002000200020002000000000000000EB
:10552000000084008400840084008400840048001B
:1055300030000000000000000000880088005000DB
:1055400050005000500050002000000000000000FB
:1055500000009200AA00AA00AA00AA00AA00AA00BD
:1055600044000000000000000000840048004800E3
:1055700030003000480048008400000000000000B7
:105580000000880050005000200020002000200073
:1055900020000000000000000000F80008001000DB
:1055A0002000200040008000F80000000000000003
:1055B0000000C0008000800080008000800080002B
:1055C000800080000000000000008000800040009B
:1055D00040004000400020002000000000000000CB
:1055E0000000C0004000400040004000400040007B
:1055F000400040000000000000004000A000A000AB
:10560000A0000000000000000000000000000000FA
:10561000000000000000000000000000000000008A
:105620000000F800000000000000800040000000C2
:10563000000000000000000000000000000000006A
:10564000000000000000E0001000700090009000DA
:105650007000000000000000000080008000A0003A
:10566000D00090009000D000A000000000000000DA
:1056700000000000000060009000800080009000AA
:10568000600000000000000000001000100050004A
:10569000B00090009000B00050000000000000003A
:1056A00000000000000060009000F000800090000A
:1056B00060000000000000000000C0008000C0008A
:1056C000800080008000800080000000000000005A
:1056D0000000000000005000B00090009000B000FA
:1056E0005000100000000000000080008000A000BA
:1056F000D00090009000900090000000000000009A
:105700000000800000008000800080008000800099
:105710008000000000000000000080000000800009
:105720008000800080008000800080000000000079
:105730000000800080009000A000C000A000900049
:105740009000000000000000000080008000800049
:1057500080008000800080008000000000000000C9
:10576000000000000000A600DA0092009200920003
:105770009200000000000000000000000000A000F7
:10578000D000900090009000900000000000000009
:105790000000000000006000900090009000900069
:1057A0006000000000000000000000000000A000F9
:1057B000D00090009000D000A00080000000000009
:1057C0000000000000005000B00090009000B00009
:1057D0005000100000000000000000000000A000C9
:1057E000C0008000800080008000000000000000F9
:1057F000000000000000E000900040002000900049
:105800006000000000000000000080008000C00078
:105810008000800080008000C000000000000000C8
:105820000000000000009000900090009000B00088
:105830005000000000000000000000000000880090
:1058400088005000500050002000000000000000C0
:105850000000000000009200AA00AA00AA00AA000E
:10586000440000000000000000000000000088006C
:1058700050002000200050008800000000000000C0
:105880000000000000008800500050005000200080
:105890002000200000000000000000000000F000D8
:1058A0001000200040008000F00000000000000018
:1058B0000000C000800080008000000080008000A8
:1058C0008000800000000000000080008000800058
:1058D00080008000800080008000800000000000C8
:1058E0000000C00040004000400020004000400098
:1058F0004000400000000000000000000000000028
:10590000E800B000000000000000000000000000FF
:1059100000000000E000A000A000A000A000A00087
:10592000E000000000000000000000000000000097
:1059300000000000400040004000400040004000E7
:1059400000004000A000A000A00000000000000037
:1059500000000000000024002400FE004800FC00BD
:10596000480048003800540050003800140014006B
:10597000540038004400A800A800500014001A0089
:105980002A002400100028002800100074004C0099
:105990004C0030001000100010000000000000005B
:1059A000000000000800100010001000100010009F
:1059B0001000080010000800080008000800080097
:1059C0000800100000000000240018003C0018002F
:1059D0002400000000000000100010007C001000F7
:1059E000100000000000000000000000000008009F
:1059F0000800100000000000000000003C00000053
:105A00000000000000000000000000000000000096
:105A100018001800080008000800100010002000FE
:105A2000200020001800240024002400240024006A
:105A300024001800080018002800080008000800CA
:105A400008000800380044000000040008001000AE
:105A500020007C001800240004001800040004004A
:105A60002400180004000C001400240044007E00F0
:105A7000040004003C002000200038000400040062
:105A800024001800180024002000380024002400FE
:105A9000240018003C000400080008000800100062
:105AA0001000100018002400240018002400240016
:105AB0002400180018002400240024001C00040006
:105AC000240018000000000010000000000010007A
:105AD00000000000000000000800000000000800B6
